{
  "_format": "hh-sol-artifact-1",
  "contractName": "InsurancePayment",
  "sourceName": "contracts/InsurancePayment.sol",
  "abi": [
    {
      "inputs": [
        {
          "internalType": "address",
          "name": "_insurancePolicyAddress",
          "type": "address"
        },
        {
          "internalType": "address",
          "name": "_escrowAddress",
          "type": "address"
        }
      ],
      "stateMutability": "nonpayable",
      "type": "constructor"
    },
    {
      "anonymous": false,
      "inputs": [
        {
          "indexed": true,
          "internalType": "address",
          "name": "policyHolder",
          "type": "address"
        },
        {
          "indexed": false,
          "internalType": "uint96",
          "name": "amount",
          "type": "uint96"
        },
        {
          "indexed": true,
          "internalType": "bytes32",
          "name": "policyId",
          "type": "bytes32"
        }
      ],
      "name": "PaymentReceived",
      "type": "event"
    },
    {
      "anonymous": false,
      "inputs": [
        {
          "indexed": true,
          "internalType": "bytes32",
          "name": "policyId",
          "type": "bytes32"
        },
        {
          "indexed": true,
          "internalType": "address",
          "name": "recipient",
          "type": "address"
        },
        {
          "indexed": false,
          "internalType": "uint96",
          "name": "amount",
          "type": "uint96"
        }
      ],
      "name": "PolicyPayout",
      "type": "event"
    },
    {
      "stateMutability": "payable",
      "type": "fallback"
    },
    {
      "inputs": [],
      "name": "admin",
      "outputs": [
        {
          "internalType": "address",
          "name": "",
          "type": "address"
        }
      ],
      "stateMutability": "view",
      "type": "function"
    },
    {
      "inputs": [],
      "name": "escrow",
      "outputs": [
        {
          "internalType": "contract IEscrow",
          "name": "",
          "type": "address"
        }
      ],
      "stateMutability": "view",
      "type": "function"
    },
    {
      "inputs": [],
      "name": "insurancePolicy",
      "outputs": [
        {
          "internalType": "contract IInsurancePolicy",
          "name": "",
          "type": "address"
        }
      ],
      "stateMutability": "view",
      "type": "function"
    },
    {
      "inputs": [
        {
          "internalType": "bytes32",
          "name": "_policyId",
          "type": "bytes32"
        }
      ],
      "name": "payPremium",
      "outputs": [],
      "stateMutability": "payable",
      "type": "function"
    },
    {
      "inputs": [
        {
          "internalType": "bytes32",
          "name": "",
          "type": "bytes32"
        }
      ],
      "name": "policyBalances",
      "outputs": [
        {
          "internalType": "uint256",
          "name": "",
          "type": "uint256"
        }
      ],
      "stateMutability": "view",
      "type": "function"
    },
    {
      "inputs": [
        {
          "internalType": "bytes32",
          "name": "_policyId",
          "type": "bytes32"
        }
      ],
      "name": "renewPolicy",
      "outputs": [],
      "stateMutability": "payable",
      "type": "function"
    },
    {
      "stateMutability": "payable",
      "type": "receive"
    }
  ],
  "bytecode": "0x60a060405234801561001057600080fd5b5060405161178538038061178583398181016040528101906100329190610151565b3373ffffffffffffffffffffffffffffffffffffffff1660808173ffffffffffffffffffffffffffffffffffffffff1681525050816000806101000a81548173ffffffffffffffffffffffffffffffffffffffff021916908373ffffffffffffffffffffffffffffffffffffffff16021790555080600160006101000a81548173ffffffffffffffffffffffffffffffffffffffff021916908373ffffffffffffffffffffffffffffffffffffffff1602179055505050610191565b600080fd5b600073ffffffffffffffffffffffffffffffffffffffff82169050919050565b600061011e826100f3565b9050919050565b61012e81610113565b811461013957600080fd5b50565b60008151905061014b81610125565b92915050565b60008060408385031215610168576101676100ee565b5b60006101768582860161013c565b92505060206101878582860161013c565b9150509250929050565b6080516115c46101c160003960008181610633015281816107fb015281816108be0152610c3501526115c46000f3fe6080604052600436106100595760003560e01c806343a4baf11461005c578063d8e2d2ba14610099578063e2fdcc17146100b5578063f2943399146100e0578063f851a4401461010b578063f92edf0b146101365761005a565b5b005b34801561006857600080fd5b50610083600480360381019061007e9190610cee565b610152565b6040516100909190610d34565b60405180910390f35b6100b360048036038101906100ae9190610cee565b61016a565b005b3480156100c157600080fd5b506100ca610872565b6040516100d79190610dce565b60405180910390f35b3480156100ec57600080fd5b506100f5610898565b6040516101029190610e0a565b60405180910390f35b34801561011757600080fd5b506101206108bc565b60405161012d9190610e46565b60405180910390f35b610150600480360381019061014b9190610cee565b6108e0565b005b60026020528060005260406000206000915090505481565b60008060009054906101000a900473ffffffffffffffffffffffffffffffffffffffff1673ffffffffffffffffffffffffffffffffffffffff1663a3f685f9836040518263ffffffff1660e01b81526004016101c69190610e70565b60c060405180830381865afa1580156101e3573d6000803e3d6000fd5b505050506040513d601f19601f82011682018060405250810190610207919061108e565b90506000339050816000015173ffffffffffffffffffffffffffffffffffffffff168173ffffffffffffffffffffffffffffffffffffffff1614610280576040517f08c379a000000000000000000000000000000000000000000000000000000000815260040161027790611118565b60405180910390fd5b60028081111561029357610292611138565b5b8260a0015160028111156102aa576102a9611138565b5b036102ea576040517f08c379a00000000000000000000000000000000000000000000000000000000081526004016102e1906111d9565b60405180910390fd5b600034905082602001516bffffffffffffffffffffffff16816bffffffffffffffffffffffff1614610351576040517f08c379a000000000000000000000000000000000000000000000000000000000815260040161034890611245565b60405180910390fd5b600160009054906101000a900473ffffffffffffffffffffffffffffffffffffffff1673ffffffffffffffffffffffffffffffffffffffff16636994d20a346bffffffffffffffffffffffff1686856040518463ffffffff1660e01b81526004016103bd929190611265565b6000604051808303818588803b1580156103d657600080fd5b505af11580156103ea573d6000803e3d6000fd5b5050505050838273ffffffffffffffffffffffffffffffffffffffff167f4777eb77971058f37f7c3f251e705ca164050b679bcf84d1a8bb30159cfbfc8134604051610436919061129d565b60405180910390a36000600160009054906101000a900473ffffffffffffffffffffffffffffffffffffffff1673ffffffffffffffffffffffffffffffffffffffff1663530e931c86856040518363ffffffff1660e01b815260040161049d929190611265565b602060405180830381865afa1580156104ba573d6000803e3d6000fd5b505050506040513d601f19601f820116820180604052508101906104de91906112e4565b9050600060028111156104f4576104f3611138565b5b8460a00151600281111561050b5761050a611138565b5b036106a65783602001516bffffffffffffffffffffffff16811015610565576040517f08c379a000000000000000000000000000000000000000000000000000000000815260040161055c90611383565b60405180910390fd5b60008054906101000a900473ffffffffffffffffffffffffffffffffffffffff1673ffffffffffffffffffffffffffffffffffffffff16632af4f73186856040518363ffffffff1660e01b81526004016105c0929190611265565b600060405180830381600087803b1580156105da57600080fd5b505af11580156105ee573d6000803e3d6000fd5b50505050600160009054906101000a900473ffffffffffffffffffffffffffffffffffffffff1673ffffffffffffffffffffffffffffffffffffffff16637d25e89d867f00000000000000000000000000000000000000000000000000000000000000006040518363ffffffff1660e01b815260040161066f9291906113c4565b600060405180830381600087803b15801561068957600080fd5b505af115801561069d573d6000803e3d6000fd5b5050505061086b565b600160028111156106ba576106b9611138565b5b8460a0015160028111156106d1576106d0611138565b5b0361086a5783602001516bffffffffffffffffffffffff1681101561072b576040517f08c379a00000000000000000000000000000000000000000000000000000000081526004016107229061145f565b60405180910390fd5b60008054906101000a900473ffffffffffffffffffffffffffffffffffffffff1673ffffffffffffffffffffffffffffffffffffffff166334ed5ef28634866040518463ffffffff1660e01b81526004016107889392919061147f565b600060405180830381600087803b1580156107a257600080fd5b505af11580156107b6573d6000803e3d6000fd5b50505050600160009054906101000a900473ffffffffffffffffffffffffffffffffffffffff1673ffffffffffffffffffffffffffffffffffffffff16637d25e89d867f00000000000000000000000000000000000000000000000000000000000000006040518363ffffffff1660e01b81526004016108379291906113c4565b600060405180830381600087803b15801561085157600080fd5b505af1158015610865573d6000803e3d6000fd5b505050505b5b5050505050565b600160009054906101000a900473ffffffffffffffffffffffffffffffffffffffff1681565b60008054906101000a900473ffffffffffffffffffffffffffffffffffffffff1681565b7f000000000000000000000000000000000000000000000000000000000000000081565b60008060009054906101000a900473ffffffffffffffffffffffffffffffffffffffff1673ffffffffffffffffffffffffffffffffffffffff1663a3f685f9836040518263ffffffff1660e01b815260040161093c9190610e70565b60c060405180830381865afa158015610959573d6000803e3d6000fd5b505050506040513d601f19601f8201168201806040525081019061097d919061108e565b90506000339050816000015173ffffffffffffffffffffffffffffffffffffffff168173ffffffffffffffffffffffffffffffffffffffff16146109f6576040517f08c379a00000000000000000000000000000000000000000000000000000000081526004016109ed90611118565b60405180910390fd5b600280811115610a0957610a08611138565b5b8260a001516002811115610a2057610a1f611138565b5b14610a60576040517f08c379a0000000000000000000000000000000000000000000000000000000008152600401610a5790611502565b60405180910390fd5b600034905082602001516bffffffffffffffffffffffff16816bffffffffffffffffffffffff1614610ac7576040517f08c379a0000000000000000000000000000000000000000000000000000000008152600401610abe9061156e565b60405180910390fd5b600160009054906101000a900473ffffffffffffffffffffffffffffffffffffffff1673ffffffffffffffffffffffffffffffffffffffff16636994d20a346bffffffffffffffffffffffff1686856040518463ffffffff1660e01b8152600401610b33929190611265565b6000604051808303818588803b158015610b4c57600080fd5b505af1158015610b60573d6000803e3d6000fd5b505050505060008054906101000a900473ffffffffffffffffffffffffffffffffffffffff1673ffffffffffffffffffffffffffffffffffffffff166346bca4778534856040518463ffffffff1660e01b8152600401610bc29392919061147f565b600060405180830381600087803b158015610bdc57600080fd5b505af1158015610bf0573d6000803e3d6000fd5b50505050600160009054906101000a900473ffffffffffffffffffffffffffffffffffffffff1673ffffffffffffffffffffffffffffffffffffffff16637d25e89d857f00000000000000000000000000000000000000000000000000000000000000006040518363ffffffff1660e01b8152600401610c719291906113c4565b600060405180830381600087803b158015610c8b57600080fd5b505af1158015610c9f573d6000803e3d6000fd5b5050505050505050565b6000604051905090565b600080fd5b6000819050919050565b610ccb81610cb8565b8114610cd657600080fd5b50565b600081359050610ce881610cc2565b92915050565b600060208284031215610d0457610d03610cb3565b5b6000610d1284828501610cd9565b91505092915050565b6000819050919050565b610d2e81610d1b565b82525050565b6000602082019050610d496000830184610d25565b92915050565b600073ffffffffffffffffffffffffffffffffffffffff82169050919050565b6000819050919050565b6000610d94610d8f610d8a84610d4f565b610d6f565b610d4f565b9050919050565b6000610da682610d79565b9050919050565b6000610db882610d9b565b9050919050565b610dc881610dad565b82525050565b6000602082019050610de36000830184610dbf565b92915050565b6000610df482610d9b565b9050919050565b610e0481610de9565b82525050565b6000602082019050610e1f6000830184610dfb565b92915050565b6000610e3082610d4f565b9050919050565b610e4081610e25565b82525050565b6000602082019050610e5b6000830184610e37565b92915050565b610e6a81610cb8565b82525050565b6000602082019050610e856000830184610e61565b92915050565b600080fd5b6000601f19601f8301169050919050565b7f4e487b7100000000000000000000000000000000000000000000000000000000600052604160045260246000fd5b610ed982610e90565b810181811067ffffffffffffffff82111715610ef857610ef7610ea1565b5b80604052505050565b6000610f0b610ca9565b9050610f178282610ed0565b919050565b610f2581610e25565b8114610f3057600080fd5b50565b600081519050610f4281610f1c565b92915050565b60006bffffffffffffffffffffffff82169050919050565b610f6981610f48565b8114610f7457600080fd5b50565b600081519050610f8681610f60565b92915050565b600064ffffffffff82169050919050565b610fa681610f8c565b8114610fb157600080fd5b50565b600081519050610fc381610f9d565b92915050565b60038110610fd657600080fd5b50565b600081519050610fe881610fc9565b92915050565b600060c0828403121561100457611003610e8b565b5b61100e60c0610f01565b9050600061101e84828501610f33565b600083015250602061103284828501610f77565b602083015250604061104684828501610f77565b604083015250606061105a84828501610fb4565b606083015250608061106e84828501610fb4565b60808301525060a061108284828501610fd9565b60a08301525092915050565b600060c082840312156110a4576110a3610cb3565b5b60006110b284828501610fee565b91505092915050565b600082825260208201905092915050565b7f4e6f7420506f6c69637920486f6c646572000000000000000000000000000000600082015250565b60006111026011836110bb565b915061110d826110cc565b602082019050919050565b60006020820190508181036000830152611131816110f5565b9050919050565b7f4e487b7100000000000000000000000000000000000000000000000000000000600052602160045260246000fd5b7f506f6c69637920657870697265642c2072656e657720796f757220706f6c696360008201527f7900000000000000000000000000000000000000000000000000000000000000602082015250565b60006111c36021836110bb565b91506111ce82611167565b604082019050919050565b600060208201905081810360008301526111f2816111b6565b9050919050565b7f496e636f7272656374207072656d69756d20616d6f756e740000000000000000600082015250565b600061122f6018836110bb565b915061123a826111f9565b602082019050919050565b6000602082019050818103600083015261125e81611222565b9050919050565b600060408201905061127a6000830185610e61565b6112876020830184610e37565b9392505050565b61129781610f48565b82525050565b60006020820190506112b2600083018461128e565b92915050565b6112c181610d1b565b81146112cc57600080fd5b50565b6000815190506112de816112b8565b92915050565b6000602082840312156112fa576112f9610cb3565b5b6000611308848285016112cf565b91505092915050565b7f496e73756666696369656e7420657363726f772062616c616e636520666f722060008201527f61637469766174696f6e00000000000000000000000000000000000000000000602082015250565b600061136d602a836110bb565b915061137882611311565b604082019050919050565b6000602082019050818103600083015261139c81611360565b9050919050565b60006113ae82610d4f565b9050919050565b6113be816113a3565b82525050565b60006040820190506113d96000830185610e61565b6113e660208301846113b5565b9392505050565b7f496e73756666696369656e7420657363726f772062616c616e636520666f722060008201527f72656e6577616c00000000000000000000000000000000000000000000000000602082015250565b60006114496027836110bb565b9150611454826113ed565b604082019050919050565b600060208201905081810360008301526114788161143c565b9050919050565b60006060820190506114946000830186610e61565b6114a1602083018561128e565b6114ae6040830184610e37565b949350505050565b7f506f6c696379206973206e6f7420657870697265640000000000000000000000600082015250565b60006114ec6015836110bb565b91506114f7826114b6565b602082019050919050565b6000602082019050818103600083015261151b816114df565b9050919050565b7f496e636f72726563742072656e6577616c20616d6f756e740000000000000000600082015250565b60006115586018836110bb565b915061156382611522565b602082019050919050565b600060208201905081810360008301526115878161154b565b905091905056fea2646970667358221220584115c12d5dcc4c69b699db4e91b271126d989549300cd43d30b4fba1a78a3464736f6c634300081c0033",
  "linkReferences": {},
  "deployedLinkReferences": {}
}