{
  "_format": "hh-sol-artifact-1",
  "contractName": "InsurancePolicy",
  "sourceName": "contracts/InsurancePolicy.sol",
  "abi": [
    {
      "inputs": [],
      "stateMutability": "nonpayable",
      "type": "constructor"
    },
    {
      "anonymous": false,
      "inputs": [
        {
          "indexed": true,
          "internalType": "address",
          "name": "employee",
          "type": "address"
        }
      ],
      "name": "EmployeeAdded",
      "type": "event"
    },
    {
      "anonymous": false,
      "inputs": [
        {
          "indexed": true,
          "internalType": "bytes32",
          "name": "policyId",
          "type": "bytes32"
        }
      ],
      "name": "PolicyActivated",
      "type": "event"
    },
    {
      "anonymous": false,
      "inputs": [
        {
          "indexed": true,
          "internalType": "bytes32",
          "name": "policyId",
          "type": "bytes32"
        },
        {
          "indexed": true,
          "internalType": "address",
          "name": "policyHolder",
          "type": "address"
        },
        {
          "indexed": false,
          "internalType": "uint96",
          "name": "premium",
          "type": "uint96"
        },
        {
          "indexed": false,
          "internalType": "uint40",
          "name": "startDate",
          "type": "uint40"
        },
        {
          "indexed": false,
          "internalType": "uint40",
          "name": "endDate",
          "type": "uint40"
        }
      ],
      "name": "PolicyCreated",
      "type": "event"
    },
    {
      "anonymous": false,
      "inputs": [
        {
          "indexed": true,
          "internalType": "bytes32",
          "name": "policyId",
          "type": "bytes32"
        }
      ],
      "name": "PolicyDeactivated",
      "type": "event"
    },
    {
      "anonymous": false,
      "inputs": [
        {
          "indexed": true,
          "internalType": "bytes32",
          "name": "policyId",
          "type": "bytes32"
        },
        {
          "indexed": false,
          "internalType": "uint40",
          "name": "newEndDate",
          "type": "uint40"
        },
        {
          "indexed": false,
          "internalType": "uint96",
          "name": "newSumInsured",
          "type": "uint96"
        }
      ],
      "name": "PolicyPaid",
      "type": "event"
    },
    {
      "anonymous": false,
      "inputs": [
        {
          "indexed": true,
          "internalType": "bytes32",
          "name": "policyId",
          "type": "bytes32"
        },
        {
          "indexed": false,
          "internalType": "uint40",
          "name": "newEndDate",
          "type": "uint40"
        },
        {
          "indexed": false,
          "internalType": "uint96",
          "name": "newSumInsured",
          "type": "uint96"
        }
      ],
      "name": "PolicyRenewed",
      "type": "event"
    },
    {
      "inputs": [
        {
          "internalType": "bytes32",
          "name": "_policyId",
          "type": "bytes32"
        },
        {
          "internalType": "address",
          "name": "_caller",
          "type": "address"
        }
      ],
      "name": "activatePolicy",
      "outputs": [],
      "stateMutability": "nonpayable",
      "type": "function"
    },
    {
      "inputs": [
        {
          "internalType": "address",
          "name": "_employee",
          "type": "address"
        }
      ],
      "name": "addEmployee",
      "outputs": [],
      "stateMutability": "nonpayable",
      "type": "function"
    },
    {
      "inputs": [],
      "name": "admin",
      "outputs": [
        {
          "internalType": "address",
          "name": "",
          "type": "address"
        }
      ],
      "stateMutability": "view",
      "type": "function"
    },
    {
      "inputs": [
        {
          "internalType": "address",
          "name": "_policyHolder",
          "type": "address"
        },
        {
          "internalType": "uint96",
          "name": "_premium",
          "type": "uint96"
        }
      ],
      "name": "createPolicy",
      "outputs": [
        {
          "internalType": "bytes32",
          "name": "",
          "type": "bytes32"
        }
      ],
      "stateMutability": "nonpayable",
      "type": "function"
    },
    {
      "inputs": [
        {
          "internalType": "bytes32",
          "name": "_policyId",
          "type": "bytes32"
        }
      ],
      "name": "deactivatePolicy",
      "outputs": [],
      "stateMutability": "nonpayable",
      "type": "function"
    },
    {
      "inputs": [
        {
          "internalType": "address",
          "name": "",
          "type": "address"
        }
      ],
      "name": "employees",
      "outputs": [
        {
          "internalType": "bool",
          "name": "",
          "type": "bool"
        }
      ],
      "stateMutability": "view",
      "type": "function"
    },
    {
      "inputs": [
        {
          "internalType": "bytes32",
          "name": "_policyId",
          "type": "bytes32"
        }
      ],
      "name": "getPolicy",
      "outputs": [
        {
          "components": [
            {
              "internalType": "address",
              "name": "policyHolder",
              "type": "address"
            },
            {
              "internalType": "uint96",
              "name": "premium",
              "type": "uint96"
            },
            {
              "internalType": "uint96",
              "name": "sumInsured",
              "type": "uint96"
            },
            {
              "internalType": "uint40",
              "name": "startDate",
              "type": "uint40"
            },
            {
              "internalType": "uint40",
              "name": "endDate",
              "type": "uint40"
            },
            {
              "internalType": "enum InsurancePolicy.PolicyStatus",
              "name": "status",
              "type": "uint8"
            }
          ],
          "internalType": "struct InsurancePolicy.Policy",
          "name": "",
          "type": "tuple"
        }
      ],
      "stateMutability": "view",
      "type": "function"
    },
    {
      "inputs": [
        {
          "internalType": "address",
          "name": "_address",
          "type": "address"
        }
      ],
      "name": "isEmployee",
      "outputs": [
        {
          "internalType": "bool",
          "name": "",
          "type": "bool"
        }
      ],
      "stateMutability": "view",
      "type": "function"
    },
    {
      "inputs": [
        {
          "internalType": "bytes32",
          "name": "_policyId",
          "type": "bytes32"
        },
        {
          "internalType": "uint96",
          "name": "_amount",
          "type": "uint96"
        },
        {
          "internalType": "address",
          "name": "_caller",
          "type": "address"
        }
      ],
      "name": "payActivePolicy",
      "outputs": [],
      "stateMutability": "nonpayable",
      "type": "function"
    },
    {
      "inputs": [
        {
          "internalType": "bytes32",
          "name": "",
          "type": "bytes32"
        }
      ],
      "name": "policies",
      "outputs": [
        {
          "internalType": "address",
          "name": "policyHolder",
          "type": "address"
        },
        {
          "internalType": "uint96",
          "name": "premium",
          "type": "uint96"
        },
        {
          "internalType": "uint96",
          "name": "sumInsured",
          "type": "uint96"
        },
        {
          "internalType": "uint40",
          "name": "startDate",
          "type": "uint40"
        },
        {
          "internalType": "uint40",
          "name": "endDate",
          "type": "uint40"
        },
        {
          "internalType": "enum InsurancePolicy.PolicyStatus",
          "name": "status",
          "type": "uint8"
        }
      ],
      "stateMutability": "view",
      "type": "function"
    },
    {
      "inputs": [
        {
          "internalType": "bytes32",
          "name": "_policyId",
          "type": "bytes32"
        },
        {
          "internalType": "uint96",
          "name": "_premium",
          "type": "uint96"
        },
        {
          "internalType": "address",
          "name": "_caller",
          "type": "address"
        }
      ],
      "name": "renewPolicy",
      "outputs": [],
      "stateMutability": "nonpayable",
      "type": "function"
    }
  ],
  "bytecode": "0x60a0604052348015600f57600080fd5b503373ffffffffffffffffffffffffffffffffffffffff1660808173ffffffffffffffffffffffffffffffffffffffff1681525050608051611b7661006d6000396000818161024f01528181610f2b01526110560152611b766000f3fe608060405234801561001057600080fd5b50600436106100a95760003560e01c8063a3f685f911610071578063a3f685f91461014e578063d06789471461017e578063ddbfd8ef146101ae578063ea66543f146101e3578063f3cb8c3114610213578063f851a4401461022f576100a9565b806318cb97b6146100ae5780632af4f731146100ca57806334ed5ef2146100e657806346bca477146101025780639dd0fa521461011e575b600080fd5b6100c860048036038101906100c3919061113b565b61024d565b005b6100e460048036038101906100df91906111c6565b6103a1565b005b61010060048036038101906100fb919061124a565b610595565b005b61011c6004803603810190610117919061124a565b6107b2565b005b6101386004803603810190610133919061129d565b6109fb565b60405161014591906112ec565b60405180910390f35b6101686004803603810190610163919061113b565b610c6d565b6040516101759190611437565b60405180910390f35b61019860048036038101906101939190611452565b610df8565b6040516101a5919061149a565b60405180910390f35b6101c860048036038101906101c3919061113b565b610e18565b6040516101da969594939291906114f1565b60405180910390f35b6101fd60048036038101906101f89190611452565b610ed3565b60405161020a919061149a565b60405180910390f35b61022d60048036038101906102289190611452565b610f29565b005b610237611054565b6040516102449190611552565b60405180910390f35b7f000000000000000000000000000000000000000000000000000000000000000073ffffffffffffffffffffffffffffffffffffffff163373ffffffffffffffffffffffffffffffffffffffff16141580156102f35750600160003373ffffffffffffffffffffffffffffffffffffffff1673ffffffffffffffffffffffffffffffffffffffff16815260200190815260200160002060009054906101000a900460ff16155b15610333576040517f08c379a000000000000000000000000000000000000000000000000000000000815260040161032a906115ca565b60405180910390fd5b600260008083815260200190815260200160002060010160166101000a81548160ff0219169083600281111561036c5761036b611345565b5b0217905550807f5d618a9915878058ef2c810a830a3b9391b8d8ef4e475445d6efe3e0f0f2af6660405160405180910390a250565b60008060008481526020019081526020016000209050600060028111156103cb576103ca611345565b5b8160010160169054906101000a900460ff1660028111156103ef576103ee611345565b5b1461042f576040517f08c379a000000000000000000000000000000000000000000000000000000000815260040161042690611636565b60405180910390fd5b8060000160009054906101000a900473ffffffffffffffffffffffffffffffffffffffff1673ffffffffffffffffffffffffffffffffffffffff168273ffffffffffffffffffffffffffffffffffffffff16146104c1576040517f08c379a00000000000000000000000000000000000000000000000000000000081526004016104b8906116c8565b60405180910390fd5b8060000160149054906101000a90046bffffffffffffffffffffffff168160010160008282829054906101000a90046bffffffffffffffffffffffff166105089190611717565b92506101000a8154816bffffffffffffffffffffffff02191690836bffffffffffffffffffffffff16021790555060018160010160166101000a81548160ff0219169083600281111561055e5761055d611345565b5b0217905550827f95a5e187f5b089b4d28ca86815871a8742a0effa8cb3ec38b6bb52ed524857c060405160405180910390a2505050565b60008060008581526020019081526020016000209050600160028111156105bf576105be611345565b5b8160010160169054906101000a900460ff1660028111156105e3576105e2611345565b5b14610623576040517f08c379a000000000000000000000000000000000000000000000000000000000815260040161061a906117a3565b60405180910390fd5b8060000160009054906101000a900473ffffffffffffffffffffffffffffffffffffffff1673ffffffffffffffffffffffffffffffffffffffff168273ffffffffffffffffffffffffffffffffffffffff16146106b5576040517f08c379a00000000000000000000000000000000000000000000000000000000081526004016106ac90611835565b60405180910390fd5b828160010160008282829054906101000a90046bffffffffffffffffffffffff166106e09190611717565b92506101000a8154816bffffffffffffffffffffffff02191690836bffffffffffffffffffffffff16021790555062278d004261071d919061185f565b8160010160116101000a81548164ffffffffff021916908364ffffffffff160217905550837f69ddecba7f1567fe8504db4b4e2ac42c55d56e37e3c660f7c8da98a3794f5f2f8260010160119054906101000a900464ffffffffff168360010160009054906101000a90046bffffffffffffffffffffffff166040516107a4929190611893565b60405180910390a250505050565b600080600085815260200190815260200160002090508060000160009054906101000a900473ffffffffffffffffffffffffffffffffffffffff1673ffffffffffffffffffffffffffffffffffffffff168273ffffffffffffffffffffffffffffffffffffffff161461085a576040517f08c379a00000000000000000000000000000000000000000000000000000000081526004016108519061192e565b60405180910390fd5b60028081111561086d5761086c611345565b5b8160010160169054906101000a900460ff16600281111561089157610890611345565b5b146108d1576040517f08c379a00000000000000000000000000000000000000000000000000000000081526004016108c89061199a565b60405180910390fd5b828160010160008282829054906101000a90046bffffffffffffffffffffffff166108fc9190611717565b92506101000a8154816bffffffffffffffffffffffff02191690836bffffffffffffffffffffffff16021790555062278d0042610939919061185f565b8160010160116101000a81548164ffffffffff021916908364ffffffffff16021790555060018160010160166101000a81548160ff0219169083600281111561098557610984611345565b5b0217905550837f99cc9a5e2d7201d4aa428b5a8d73f49cf75685c0eff3b70a9f1efcc0c2292e928260010160119054906101000a900464ffffffffff168360010160009054906101000a90046bffffffffffffffffffffffff166040516109ed929190611893565b60405180910390a250505050565b600080429050600062278d0082610a1291906119ba565b905060008583604051602001610a29929190611a71565b6040516020818303038152906040528051906020012090506040518060c001604052808773ffffffffffffffffffffffffffffffffffffffff168152602001866bffffffffffffffffffffffff16815260200160006bffffffffffffffffffffffff1681526020018464ffffffffff1681526020018364ffffffffff16815260200160006002811115610abf57610abe611345565b5b81525060008083815260200190815260200160002060008201518160000160006101000a81548173ffffffffffffffffffffffffffffffffffffffff021916908373ffffffffffffffffffffffffffffffffffffffff16021790555060208201518160000160146101000a8154816bffffffffffffffffffffffff02191690836bffffffffffffffffffffffff16021790555060408201518160010160006101000a8154816bffffffffffffffffffffffff02191690836bffffffffffffffffffffffff160217905550606082015181600101600c6101000a81548164ffffffffff021916908364ffffffffff16021790555060808201518160010160116101000a81548164ffffffffff021916908364ffffffffff16021790555060a08201518160010160166101000a81548160ff02191690836002811115610c0657610c05611345565b5b02179055509050508573ffffffffffffffffffffffffffffffffffffffff16817f6ffb5abaaafa0ba8da218235b69569e694b5986bdc6e1e080f15c5022c2c93dc878686604051610c5993929190611a9d565b60405180910390a380935050505092915050565b610c75611078565b6000808381526020019081526020016000206040518060c00160405290816000820160009054906101000a900473ffffffffffffffffffffffffffffffffffffffff1673ffffffffffffffffffffffffffffffffffffffff1673ffffffffffffffffffffffffffffffffffffffff1681526020016000820160149054906101000a90046bffffffffffffffffffffffff166bffffffffffffffffffffffff166bffffffffffffffffffffffff1681526020016001820160009054906101000a90046bffffffffffffffffffffffff166bffffffffffffffffffffffff166bffffffffffffffffffffffff16815260200160018201600c9054906101000a900464ffffffffff1664ffffffffff1664ffffffffff1681526020016001820160119054906101000a900464ffffffffff1664ffffffffff1664ffffffffff1681526020016001820160169054906101000a900460ff166002811115610ddb57610dda611345565b5b6002811115610ded57610dec611345565b5b815250509050919050565b60016020528060005260406000206000915054906101000a900460ff1681565b60006020528060005260406000206000915090508060000160009054906101000a900473ffffffffffffffffffffffffffffffffffffffff16908060000160149054906101000a90046bffffffffffffffffffffffff16908060010160009054906101000a90046bffffffffffffffffffffffff169080600101600c9054906101000a900464ffffffffff16908060010160119054906101000a900464ffffffffff16908060010160169054906101000a900460ff16905086565b6000600160008373ffffffffffffffffffffffffffffffffffffffff1673ffffffffffffffffffffffffffffffffffffffff16815260200190815260200160002060009054906101000a900460ff169050919050565b7f000000000000000000000000000000000000000000000000000000000000000073ffffffffffffffffffffffffffffffffffffffff163373ffffffffffffffffffffffffffffffffffffffff1614610fb7576040517f08c379a0000000000000000000000000000000000000000000000000000000008152600401610fae90611b20565b60405180910390fd5b60018060008373ffffffffffffffffffffffffffffffffffffffff1673ffffffffffffffffffffffffffffffffffffffff16815260200190815260200160002060006101000a81548160ff0219169083151502179055508073ffffffffffffffffffffffffffffffffffffffff167f041109cfe10cfa549abb66b986d0a294ecc6c9ad39000abcb9c2afd422c8bd6460405160405180910390a250565b7f000000000000000000000000000000000000000000000000000000000000000081565b6040518060c00160405280600073ffffffffffffffffffffffffffffffffffffffff16815260200160006bffffffffffffffffffffffff16815260200160006bffffffffffffffffffffffff168152602001600064ffffffffff168152602001600064ffffffffff168152602001600060028111156110fa576110f9611345565b5b81525090565b600080fd5b6000819050919050565b61111881611105565b811461112357600080fd5b50565b6000813590506111358161110f565b92915050565b60006020828403121561115157611150611100565b5b600061115f84828501611126565b91505092915050565b600073ffffffffffffffffffffffffffffffffffffffff82169050919050565b600061119382611168565b9050919050565b6111a381611188565b81146111ae57600080fd5b50565b6000813590506111c08161119a565b92915050565b600080604083850312156111dd576111dc611100565b5b60006111eb85828601611126565b92505060206111fc858286016111b1565b9150509250929050565b60006bffffffffffffffffffffffff82169050919050565b61122781611206565b811461123257600080fd5b50565b6000813590506112448161121e565b92915050565b60008060006060848603121561126357611262611100565b5b600061127186828701611126565b935050602061128286828701611235565b9250506040611293868287016111b1565b9150509250925092565b600080604083850312156112b4576112b3611100565b5b60006112c2858286016111b1565b92505060206112d385828601611235565b9150509250929050565b6112e681611105565b82525050565b600060208201905061130160008301846112dd565b92915050565b61131081611188565b82525050565b61131f81611206565b82525050565b600064ffffffffff82169050919050565b61133f81611325565b82525050565b7f4e487b7100000000000000000000000000000000000000000000000000000000600052602160045260246000fd5b6003811061138557611384611345565b5b50565b600081905061139682611374565b919050565b60006113a682611388565b9050919050565b6113b68161139b565b82525050565b60c0820160008201516113d26000850182611307565b5060208201516113e56020850182611316565b5060408201516113f86040850182611316565b50606082015161140b6060850182611336565b50608082015161141e6080850182611336565b5060a082015161143160a08501826113ad565b50505050565b600060c08201905061144c60008301846113bc565b92915050565b60006020828403121561146857611467611100565b5b6000611476848285016111b1565b91505092915050565b60008115159050919050565b6114948161147f565b82525050565b60006020820190506114af600083018461148b565b92915050565b6114be81611188565b82525050565b6114cd81611206565b82525050565b6114dc81611325565b82525050565b6114eb8161139b565b82525050565b600060c08201905061150660008301896114b5565b61151360208301886114c4565b61152060408301876114c4565b61152d60608301866114d3565b61153a60808301856114d3565b61154760a08301846114e2565b979650505050505050565b600060208201905061156760008301846114b5565b92915050565b600082825260208201905092915050565b7f4e6f7420617574686f7269736564000000000000000000000000000000000000600082015250565b60006115b4600e8361156d565b91506115bf8261157e565b602082019050919050565b600060208201905081810360008301526115e3816115a7565b9050919050565b7f506f6c696379206e6f7420696e2070656e64696e672073746174650000000000600082015250565b6000611620601b8361156d565b915061162b826115ea565b602082019050919050565b6000602082019050818103600083015261164f81611613565b9050919050565b7f4f6e6c792074686520706f6c69637920686f6c6465722063616e20616374697660008201527f6174652074686520706f6c696379000000000000000000000000000000000000602082015250565b60006116b2602e8361156d565b91506116bd82611656565b604082019050919050565b600060208201905081810360008301526116e1816116a5565b9050919050565b7f4e487b7100000000000000000000000000000000000000000000000000000000600052601160045260246000fd5b600061172282611206565b915061172d83611206565b925082820190506bffffffffffffffffffffffff811115611751576117506116e8565b5b92915050565b7f506f6c696379206973206e6f7420616374697665000000000000000000000000600082015250565b600061178d60148361156d565b915061179882611757565b602082019050919050565b600060208201905081810360008301526117bc81611780565b9050919050565b7f4f6e6c792074686520706f6c69637920686f6c6465722063616e20706179206660008201527f6f722074686520706f6c69637900000000000000000000000000000000000000602082015250565b600061181f602d8361156d565b915061182a826117c3565b604082019050919050565b6000602082019050818103600083015261184e81611812565b9050919050565b6000819050919050565b600061186a82611855565b915061187583611855565b925082820190508082111561188d5761188c6116e8565b5b92915050565b60006040820190506118a860008301856114d3565b6118b560208301846114c4565b9392505050565b7f4f6e6c792074686520706f6c69637920686f6c6465722063616e2072656e657760008201527f2074686520706f6c696379000000000000000000000000000000000000000000602082015250565b6000611918602b8361156d565b9150611923826118bc565b604082019050919050565b600060208201905081810360008301526119478161190b565b9050919050565b7f506f6c696379206e6f7420657870697265640000000000000000000000000000600082015250565b600061198460128361156d565b915061198f8261194e565b602082019050919050565b600060208201905081810360008301526119b381611977565b9050919050565b60006119c582611325565b91506119d083611325565b9250828201905064ffffffffff8111156119ed576119ec6116e8565b5b92915050565b60008160601b9050919050565b6000611a0b826119f3565b9050919050565b6000611a1d82611a00565b9050919050565b611a35611a3082611188565b611a12565b82525050565b60008160d81b9050919050565b6000611a5382611a3b565b9050919050565b611a6b611a6682611325565b611a48565b82525050565b6000611a7d8285611a24565b601482019150611a8d8284611a5a565b6005820191508190509392505050565b6000606082019050611ab260008301866114c4565b611abf60208301856114d3565b611acc60408301846114d3565b949350505050565b7f4e6f742061646d696e0000000000000000000000000000000000000000000000600082015250565b6000611b0a60098361156d565b9150611b1582611ad4565b602082019050919050565b60006020820190508181036000830152611b3981611afd565b905091905056fea264697066735822122029dbd93029c4261a584cabf3e9b42c9028363e6c5874d62d73389f4bd370679164736f6c634300081c0033",
  "linkReferences": {},
  "deployedLinkReferences": {}
}