{
  "_format": "hh-sol-artifact-1",
  "contractName": "InsuranceClaims",
  "sourceName": "contracts/InsuranceClaims.sol",
  "abi": [
    {
      "inputs": [
        {
          "internalType": "address",
          "name": "_insurancePolicyAddress",
          "type": "address"
        }
      ],
      "stateMutability": "nonpayable",
      "type": "constructor"
    },
    {
      "anonymous": false,
      "inputs": [
        {
          "indexed": true,
          "internalType": "bytes32",
          "name": "claimId",
          "type": "bytes32"
        },
        {
          "indexed": true,
          "internalType": "bytes32",
          "name": "policyId",
          "type": "bytes32"
        },
        {
          "indexed": true,
          "internalType": "address",
          "name": "claimant",
          "type": "address"
        },
        {
          "indexed": false,
          "internalType": "uint96",
          "name": "amount",
          "type": "uint96"
        },
        {
          "indexed": false,
          "internalType": "enum InsuranceClaims.ClaimStatus",
          "name": "status",
          "type": "uint8"
        }
      ],
      "name": "ClaimLogged",
      "type": "event"
    },
    {
      "anonymous": false,
      "inputs": [
        {
          "indexed": true,
          "internalType": "bytes32",
          "name": "claimId",
          "type": "bytes32"
        },
        {
          "indexed": false,
          "internalType": "enum InsuranceClaims.ClaimStatus",
          "name": "status",
          "type": "uint8"
        }
      ],
      "name": "ClaimStatusUpdated",
      "type": "event"
    },
    {
      "inputs": [],
      "name": "admin",
      "outputs": [
        {
          "internalType": "address",
          "name": "",
          "type": "address"
        }
      ],
      "stateMutability": "view",
      "type": "function"
    },
    {
      "inputs": [
        {
          "internalType": "bytes32",
          "name": "",
          "type": "bytes32"
        }
      ],
      "name": "claims",
      "outputs": [
        {
          "internalType": "bytes32",
          "name": "policyId",
          "type": "bytes32"
        },
        {
          "internalType": "address",
          "name": "claimant",
          "type": "address"
        },
        {
          "internalType": "uint96",
          "name": "amount",
          "type": "uint96"
        },
        {
          "internalType": "uint40",
          "name": "dateFiled",
          "type": "uint40"
        },
        {
          "internalType": "uint8",
          "name": "mlValidationScore",
          "type": "uint8"
        },
        {
          "internalType": "enum InsuranceClaims.ClaimStatus",
          "name": "status",
          "type": "uint8"
        }
      ],
      "stateMutability": "view",
      "type": "function"
    },
    {
      "inputs": [
        {
          "internalType": "bytes32",
          "name": "_claimId",
          "type": "bytes32"
        }
      ],
      "name": "getClaim",
      "outputs": [
        {
          "components": [
            {
              "internalType": "bytes32",
              "name": "policyId",
              "type": "bytes32"
            },
            {
              "internalType": "address",
              "name": "claimant",
              "type": "address"
            },
            {
              "internalType": "uint96",
              "name": "amount",
              "type": "uint96"
            },
            {
              "internalType": "uint40",
              "name": "dateFiled",
              "type": "uint40"
            },
            {
              "internalType": "uint8",
              "name": "mlValidationScore",
              "type": "uint8"
            },
            {
              "internalType": "enum InsuranceClaims.ClaimStatus",
              "name": "status",
              "type": "uint8"
            }
          ],
          "internalType": "struct InsuranceClaims.Claim",
          "name": "",
          "type": "tuple"
        }
      ],
      "stateMutability": "view",
      "type": "function"
    },
    {
      "inputs": [
        {
          "internalType": "bytes32",
          "name": "_policyId",
          "type": "bytes32"
        }
      ],
      "name": "getClaimsByPolicy",
      "outputs": [
        {
          "internalType": "bytes32[]",
          "name": "",
          "type": "bytes32[]"
        }
      ],
      "stateMutability": "view",
      "type": "function"
    },
    {
      "inputs": [],
      "name": "insurancePolicy",
      "outputs": [
        {
          "internalType": "contract IInsurancePolicy",
          "name": "",
          "type": "address"
        }
      ],
      "stateMutability": "view",
      "type": "function"
    },
    {
      "inputs": [
        {
          "internalType": "bytes32",
          "name": "_policyId",
          "type": "bytes32"
        },
        {
          "internalType": "uint96",
          "name": "_amount",
          "type": "uint96"
        },
        {
          "internalType": "uint8",
          "name": "_mlValidationScore",
          "type": "uint8"
        }
      ],
      "name": "logClaim",
      "outputs": [
        {
          "internalType": "bytes32",
          "name": "claimId",
          "type": "bytes32"
        }
      ],
      "stateMutability": "nonpayable",
      "type": "function"
    },
    {
      "inputs": [
        {
          "internalType": "bytes32",
          "name": "_claimId",
          "type": "bytes32"
        },
        {
          "internalType": "enum InsuranceClaims.ClaimStatus",
          "name": "_newStatus",
          "type": "uint8"
        },
        {
          "internalType": "address",
          "name": "_caller",
          "type": "address"
        }
      ],
      "name": "updateClaimStatus",
      "outputs": [],
      "stateMutability": "nonpayable",
      "type": "function"
    }
  ],
  "bytecode": "0x60c060405234801561001057600080fd5b5060405161174038038061174083398181016040528101906100329190610103565b3373ffffffffffffffffffffffffffffffffffffffff1660808173ffffffffffffffffffffffffffffffffffffffff16815250508073ffffffffffffffffffffffffffffffffffffffff1660a08173ffffffffffffffffffffffffffffffffffffffff168152505050610130565b600080fd5b600073ffffffffffffffffffffffffffffffffffffffff82169050919050565b60006100d0826100a5565b9050919050565b6100e0816100c5565b81146100eb57600080fd5b50565b6000815190506100fd816100d7565b92915050565b600060208284031215610119576101186100a0565b5b6000610127848285016100ee565b91505092915050565b60805160a0516115c161017f600039600081816101f8015281816102d90152818161061e0152818161095c01526109a80152600081816101a3015281816105c9015261098001526115c16000f3fe608060405234801561001057600080fd5b506004361061007d5760003560e01c8063eff0f5921161005b578063eff0f592146100fe578063f294339914610133578063f851a44014610151578063fcad4fd41461016f5761007d565b8063aed4ed6914610082578063ba466957146100b2578063c9100bcb146100ce575b600080fd5b61009c60048036038101906100979190610c23565b61019f565b6040516100a99190610c85565b60405180910390f35b6100cc60048036038101906100c79190610d23565b6105c7565b005b6100e860048036038101906100e39190610d76565b610770565b6040516100f59190610ef1565b60405180910390f35b61011860048036038101906101139190610d76565b6108bb565b60405161012a96959493929190610f57565b60405180910390f35b61013b61095a565b6040516101489190611017565b60405180910390f35b61015961097e565b6040516101669190611032565b60405180910390f35b61018960048036038101906101849190610d76565b6109a2565b60405161019691906110fc565b60405180910390f35b60007f000000000000000000000000000000000000000000000000000000000000000073ffffffffffffffffffffffffffffffffffffffff163373ffffffffffffffffffffffffffffffffffffffff16148061029157507f000000000000000000000000000000000000000000000000000000000000000073ffffffffffffffffffffffffffffffffffffffff1663ea66543f336040518263ffffffff1660e01b815260040161024f9190611032565b602060405180830381865afa15801561026c573d6000803e3d6000fd5b505050506040513d601f19601f820116820180604052508101906102909190611156565b5b6102d0576040517f08c379a00000000000000000000000000000000000000000000000000000000081526004016102c7906111e0565b60405180910390fd5b600042905060007f000000000000000000000000000000000000000000000000000000000000000073ffffffffffffffffffffffffffffffffffffffff1663a3f685f9876040518263ffffffff1660e01b81526004016103309190610c85565b60c060405180830381865afa15801561034d573d6000803e3d6000fd5b505050506040513d601f19601f8201168201806040525081019061037191906113ac565b90508581600001518360405160200161038c93929190611478565b6040516020818303038152906040528051906020012092506040518060c00160405280878152602001826000015173ffffffffffffffffffffffffffffffffffffffff168152602001866bffffffffffffffffffffffff1681526020018364ffffffffff1681526020018560ff1681526020016000600381111561041357610412610dff565b5b8152506000808581526020019081526020016000206000820151816000015560208201518160010160006101000a81548173ffffffffffffffffffffffffffffffffffffffff021916908373ffffffffffffffffffffffffffffffffffffffff16021790555060408201518160010160146101000a8154816bffffffffffffffffffffffff02191690836bffffffffffffffffffffffff16021790555060608201518160020160006101000a81548164ffffffffff021916908364ffffffffff16021790555060808201518160020160056101000a81548160ff021916908360ff16021790555060a08201518160020160066101000a81548160ff0219169083600381111561052557610524610dff565b5b021790555090505060016000878152602001908152602001600020839080600181540180825580915050600190039060005260206000200160009091909190915055806000015173ffffffffffffffffffffffffffffffffffffffff1686847fd365fa9002503631f5175798c2d3eb84b93d220700d7b6ba76f614b4aeb0d9bc8860006040516105b69291906114b5565b60405180910390a450509392505050565b7f000000000000000000000000000000000000000000000000000000000000000073ffffffffffffffffffffffffffffffffffffffff168173ffffffffffffffffffffffffffffffffffffffff1614806106b757507f000000000000000000000000000000000000000000000000000000000000000073ffffffffffffffffffffffffffffffffffffffff1663ea66543f826040518263ffffffff1660e01b81526004016106759190611032565b602060405180830381865afa158015610692573d6000803e3d6000fd5b505050506040513d601f19601f820116820180604052508101906106b69190611156565b5b6106f6576040517f08c379a00000000000000000000000000000000000000000000000000000000081526004016106ed90611550565b60405180910390fd5b8160008085815260200190815260200160002060020160066101000a81548160ff0219169083600381111561072e5761072d610dff565b5b0217905550827f64dc082fed5515f37d4f7944d48df5c53be7acc11ba2601fd4e90892f8a5f6c0836040516107639190611570565b60405180910390a2505050565b610778610ae8565b6000808381526020019081526020016000206040518060c0016040529081600082015481526020016001820160009054906101000a900473ffffffffffffffffffffffffffffffffffffffff1673ffffffffffffffffffffffffffffffffffffffff1673ffffffffffffffffffffffffffffffffffffffff1681526020016001820160149054906101000a90046bffffffffffffffffffffffff166bffffffffffffffffffffffff166bffffffffffffffffffffffff1681526020016002820160009054906101000a900464ffffffffff1664ffffffffff1664ffffffffff1681526020016002820160059054906101000a900460ff1660ff1660ff1681526020016002820160069054906101000a900460ff16600381111561089e5761089d610dff565b5b60038111156108b0576108af610dff565b5b815250509050919050565b60006020528060005260406000206000915090508060000154908060010160009054906101000a900473ffffffffffffffffffffffffffffffffffffffff16908060010160149054906101000a90046bffffffffffffffffffffffff16908060020160009054906101000a900464ffffffffff16908060020160059054906101000a900460ff16908060020160069054906101000a900460ff16905086565b7f000000000000000000000000000000000000000000000000000000000000000081565b7f000000000000000000000000000000000000000000000000000000000000000081565b606060007f000000000000000000000000000000000000000000000000000000000000000073ffffffffffffffffffffffffffffffffffffffff1663a3f685f9846040518263ffffffff1660e01b81526004016109ff9190610c85565b60c060405180830381865afa158015610a1c573d6000803e3d6000fd5b505050506040513d601f19601f82011682018060405250810190610a4091906113ac565b9050806000015173ffffffffffffffffffffffffffffffffffffffff163373ffffffffffffffffffffffffffffffffffffffff1614610a7e57600080fd5b60016000848152602001908152602001600020805480602002602001604051908101604052809291908181526020018280548015610adb57602002820191906000526020600020905b815481526020019060010190808311610ac7575b5050505050915050919050565b6040518060c0016040528060008019168152602001600073ffffffffffffffffffffffffffffffffffffffff16815260200160006bffffffffffffffffffffffff168152602001600064ffffffffff168152602001600060ff16815260200160006003811115610b5b57610b5a610dff565b5b81525090565b6000604051905090565b600080fd5b6000819050919050565b610b8381610b70565b8114610b8e57600080fd5b50565b600081359050610ba081610b7a565b92915050565b60006bffffffffffffffffffffffff82169050919050565b610bc781610ba6565b8114610bd257600080fd5b50565b600081359050610be481610bbe565b92915050565b600060ff82169050919050565b610c0081610bea565b8114610c0b57600080fd5b50565b600081359050610c1d81610bf7565b92915050565b600080600060608486031215610c3c57610c3b610b6b565b5b6000610c4a86828701610b91565b9350506020610c5b86828701610bd5565b9250506040610c6c86828701610c0e565b9150509250925092565b610c7f81610b70565b82525050565b6000602082019050610c9a6000830184610c76565b92915050565b60048110610cad57600080fd5b50565b600081359050610cbf81610ca0565b92915050565b600073ffffffffffffffffffffffffffffffffffffffff82169050919050565b6000610cf082610cc5565b9050919050565b610d0081610ce5565b8114610d0b57600080fd5b50565b600081359050610d1d81610cf7565b92915050565b600080600060608486031215610d3c57610d3b610b6b565b5b6000610d4a86828701610b91565b9350506020610d5b86828701610cb0565b9250506040610d6c86828701610d0e565b9150509250925092565b600060208284031215610d8c57610d8b610b6b565b5b6000610d9a84828501610b91565b91505092915050565b610dac81610b70565b82525050565b610dbb81610ce5565b82525050565b610dca81610ba6565b82525050565b600064ffffffffff82169050919050565b610dea81610dd0565b82525050565b610df981610bea565b82525050565b7f4e487b7100000000000000000000000000000000000000000000000000000000600052602160045260246000fd5b60048110610e3f57610e3e610dff565b5b50565b6000819050610e5082610e2e565b919050565b6000610e6082610e42565b9050919050565b610e7081610e55565b82525050565b60c082016000820151610e8c6000850182610da3565b506020820151610e9f6020850182610db2565b506040820151610eb26040850182610dc1565b506060820151610ec56060850182610de1565b506080820151610ed86080850182610df0565b5060a0820151610eeb60a0850182610e67565b50505050565b600060c082019050610f066000830184610e76565b92915050565b610f1581610ce5565b82525050565b610f2481610ba6565b82525050565b610f3381610dd0565b82525050565b610f4281610bea565b82525050565b610f5181610e55565b82525050565b600060c082019050610f6c6000830189610c76565b610f796020830188610f0c565b610f866040830187610f1b565b610f936060830186610f2a565b610fa06080830185610f39565b610fad60a0830184610f48565b979650505050505050565b6000819050919050565b6000610fdd610fd8610fd384610cc5565b610fb8565b610cc5565b9050919050565b6000610fef82610fc2565b9050919050565b600061100182610fe4565b9050919050565b61101181610ff6565b82525050565b600060208201905061102c6000830184611008565b92915050565b60006020820190506110476000830184610f0c565b92915050565b600081519050919050565b600082825260208201905092915050565b6000819050602082019050919050565b60006110858383610da3565b60208301905092915050565b6000602082019050919050565b60006110a98261104d565b6110b38185611058565b93506110be83611069565b8060005b838110156110ef5781516110d68882611079565b97506110e183611091565b9250506001810190506110c2565b5085935050505092915050565b60006020820190508181036000830152611116818461109e565b905092915050565b60008115159050919050565b6111338161111e565b811461113e57600080fd5b50565b6000815190506111508161112a565b92915050565b60006020828403121561116c5761116b610b6b565b5b600061117a84828501611141565b91505092915050565b600082825260208201905092915050565b7f4e6f7420617574686f7269736564000000000000000000000000000000000000600082015250565b60006111ca600e83611183565b91506111d582611194565b602082019050919050565b600060208201905081810360008301526111f9816111bd565b9050919050565b600080fd5b6000601f19601f8301169050919050565b7f4e487b7100000000000000000000000000000000000000000000000000000000600052604160045260246000fd5b61124e82611205565b810181811067ffffffffffffffff8211171561126d5761126c611216565b5b80604052505050565b6000611280610b61565b905061128c8282611245565b919050565b6000815190506112a081610cf7565b92915050565b6000815190506112b581610bbe565b92915050565b6112c481610dd0565b81146112cf57600080fd5b50565b6000815190506112e1816112bb565b92915050565b600381106112f457600080fd5b50565b600081519050611306816112e7565b92915050565b600060c0828403121561132257611321611200565b5b61132c60c0611276565b9050600061133c84828501611291565b6000830152506020611350848285016112a6565b6020830152506040611364848285016112a6565b6040830152506060611378848285016112d2565b606083015250608061138c848285016112d2565b60808301525060a06113a0848285016112f7565b60a08301525092915050565b600060c082840312156113c2576113c1610b6b565b5b60006113d08482850161130c565b91505092915050565b6000819050919050565b6113f46113ef82610b70565b6113d9565b82525050565b60008160601b9050919050565b6000611412826113fa565b9050919050565b600061142482611407565b9050919050565b61143c61143782610ce5565b611419565b82525050565b60008160d81b9050919050565b600061145a82611442565b9050919050565b61147261146d82610dd0565b61144f565b82525050565b600061148482866113e3565b602082019150611494828561142b565b6014820191506114a48284611461565b600582019150819050949350505050565b60006040820190506114ca6000830185610f1b565b6114d76020830184610f48565b9392505050565b7f416363657373207265737472696374656420746f2061646d696e20616e64206560008201527f6d706c6f79656573000000000000000000000000000000000000000000000000602082015250565b600061153a602883611183565b9150611545826114de565b604082019050919050565b600060208201905081810360008301526115698161152d565b9050919050565b60006020820190506115856000830184610f48565b9291505056fea2646970667358221220b4653b1090629e57a8940603b9484a7f7c6936c3fed63fb9c736243a9d9a52e564736f6c634300081c0033",
  "linkReferences": {},
  "deployedLinkReferences": {}
}