{
  "contracts/InsurancePolicy.sol": {
    "InsurancePolicy": {
      "abi": [
        {
          "inputs": [],
          "stateMutability": "nonpayable",
          "type": "constructor"
        },
        {
          "anonymous": false,
          "inputs": [
            {
              "indexed": true,
              "internalType": "address",
              "name": "employee",
              "type": "address"
            }
          ],
          "name": "EmployeeAdded",
          "type": "event"
        },
        {
          "anonymous": false,
          "inputs": [
            {
              "indexed": true,
              "internalType": "bytes32",
              "name": "policyId",
              "type": "bytes32"
            }
          ],
          "name": "PolicyActivated",
          "type": "event"
        },
        {
          "anonymous": false,
          "inputs": [
            {
              "indexed": true,
              "internalType": "bytes32",
              "name": "policyId",
              "type": "bytes32"
            },
            {
              "indexed": true,
              "internalType": "address",
              "name": "policyHolder",
              "type": "address"
            },
            {
              "indexed": false,
              "internalType": "uint96",
              "name": "premium",
              "type": "uint96"
            },
            {
              "indexed": false,
              "internalType": "uint40",
              "name": "startDate",
              "type": "uint40"
            },
            {
              "indexed": false,
              "internalType": "uint40",
              "name": "endDate",
              "type": "uint40"
            }
          ],
          "name": "PolicyCreated",
          "type": "event"
        },
        {
          "anonymous": false,
          "inputs": [
            {
              "indexed": true,
              "internalType": "bytes32",
              "name": "policyId",
              "type": "bytes32"
            }
          ],
          "name": "PolicyDeactivated",
          "type": "event"
        },
        {
          "anonymous": false,
          "inputs": [
            {
              "indexed": true,
              "internalType": "bytes32",
              "name": "policyId",
              "type": "bytes32"
            },
            {
              "indexed": false,
              "internalType": "uint40",
              "name": "newEndDate",
              "type": "uint40"
            },
            {
              "indexed": false,
              "internalType": "uint96",
              "name": "newSumInsured",
              "type": "uint96"
            }
          ],
          "name": "PolicyPaid",
          "type": "event"
        },
        {
          "anonymous": false,
          "inputs": [
            {
              "indexed": true,
              "internalType": "bytes32",
              "name": "policyId",
              "type": "bytes32"
            },
            {
              "indexed": false,
              "internalType": "uint40",
              "name": "newEndDate",
              "type": "uint40"
            },
            {
              "indexed": false,
              "internalType": "uint96",
              "name": "newSumInsured",
              "type": "uint96"
            }
          ],
          "name": "PolicyRenewed",
          "type": "event"
        },
        {
          "inputs": [
            {
              "internalType": "bytes32",
              "name": "_policyId",
              "type": "bytes32"
            },
            {
              "internalType": "address",
              "name": "_caller",
              "type": "address"
            }
          ],
          "name": "activatePolicy",
          "outputs": [],
          "stateMutability": "nonpayable",
          "type": "function"
        },
        {
          "inputs": [
            {
              "internalType": "address",
              "name": "_employee",
              "type": "address"
            }
          ],
          "name": "addEmployee",
          "outputs": [],
          "stateMutability": "nonpayable",
          "type": "function"
        },
        {
          "inputs": [],
          "name": "admin",
          "outputs": [
            {
              "internalType": "address",
              "name": "",
              "type": "address"
            }
          ],
          "stateMutability": "view",
          "type": "function"
        },
        {
          "inputs": [
            {
              "internalType": "address",
              "name": "_policyHolder",
              "type": "address"
            },
            {
              "internalType": "uint96",
              "name": "_premium",
              "type": "uint96"
            }
          ],
          "name": "createPolicy",
          "outputs": [
            {
              "internalType": "bytes32",
              "name": "",
              "type": "bytes32"
            }
          ],
          "stateMutability": "nonpayable",
          "type": "function"
        },
        {
          "inputs": [
            {
              "internalType": "bytes32",
              "name": "_policyId",
              "type": "bytes32"
            }
          ],
          "name": "deactivatePolicy",
          "outputs": [],
          "stateMutability": "nonpayable",
          "type": "function"
        },
        {
          "inputs": [
            {
              "internalType": "address",
              "name": "",
              "type": "address"
            }
          ],
          "name": "employees",
          "outputs": [
            {
              "internalType": "bool",
              "name": "",
              "type": "bool"
            }
          ],
          "stateMutability": "view",
          "type": "function"
        },
        {
          "inputs": [
            {
              "internalType": "bytes32",
              "name": "_policyId",
              "type": "bytes32"
            }
          ],
          "name": "getPolicy",
          "outputs": [
            {
              "components": [
                {
                  "internalType": "address",
                  "name": "policyHolder",
                  "type": "address"
                },
                {
                  "internalType": "uint96",
                  "name": "premium",
                  "type": "uint96"
                },
                {
                  "internalType": "uint96",
                  "name": "sumInsured",
                  "type": "uint96"
                },
                {
                  "internalType": "uint40",
                  "name": "startDate",
                  "type": "uint40"
                },
                {
                  "internalType": "uint40",
                  "name": "endDate",
                  "type": "uint40"
                },
                {
                  "internalType": "enum InsurancePolicy.PolicyStatus",
                  "name": "status",
                  "type": "uint8"
                }
              ],
              "internalType": "struct InsurancePolicy.Policy",
              "name": "",
              "type": "tuple"
            }
          ],
          "stateMutability": "view",
          "type": "function"
        },
        {
          "inputs": [
            {
              "internalType": "address",
              "name": "_address",
              "type": "address"
            }
          ],
          "name": "isEmployee",
          "outputs": [
            {
              "internalType": "bool",
              "name": "",
              "type": "bool"
            }
          ],
          "stateMutability": "view",
          "type": "function"
        },
        {
          "inputs": [
            {
              "internalType": "bytes32",
              "name": "_policyId",
              "type": "bytes32"
            },
            {
              "internalType": "uint96",
              "name": "_amount",
              "type": "uint96"
            },
            {
              "internalType": "address",
              "name": "_caller",
              "type": "address"
            }
          ],
          "name": "payActivePolicy",
          "outputs": [],
          "stateMutability": "nonpayable",
          "type": "function"
        },
        {
          "inputs": [
            {
              "internalType": "bytes32",
              "name": "",
              "type": "bytes32"
            }
          ],
          "name": "policies",
          "outputs": [
            {
              "internalType": "address",
              "name": "policyHolder",
              "type": "address"
            },
            {
              "internalType": "uint96",
              "name": "premium",
              "type": "uint96"
            },
            {
              "internalType": "uint96",
              "name": "sumInsured",
              "type": "uint96"
            },
            {
              "internalType": "uint40",
              "name": "startDate",
              "type": "uint40"
            },
            {
              "internalType": "uint40",
              "name": "endDate",
              "type": "uint40"
            },
            {
              "internalType": "enum InsurancePolicy.PolicyStatus",
              "name": "status",
              "type": "uint8"
            }
          ],
          "stateMutability": "view",
          "type": "function"
        },
        {
          "inputs": [
            {
              "internalType": "bytes32",
              "name": "_policyId",
              "type": "bytes32"
            },
            {
              "internalType": "uint96",
              "name": "_premium",
              "type": "uint96"
            },
            {
              "internalType": "address",
              "name": "_caller",
              "type": "address"
            }
          ],
          "name": "renewPolicy",
          "outputs": [],
          "stateMutability": "nonpayable",
          "type": "function"
        }
      ],
      "evm": {
        "bytecode": {
          "linkReferences": {},
          "object": "60a0604052348015600f57600080fd5b503373ffffffffffffffffffffffffffffffffffffffff1660808173ffffffffffffffffffffffffffffffffffffffff1681525050608051611b7661006d6000396000818161024f01528181610f2b01526110560152611b766000f3fe608060405234801561001057600080fd5b50600436106100a95760003560e01c8063a3f685f911610071578063a3f685f91461014e578063d06789471461017e578063ddbfd8ef146101ae578063ea66543f146101e3578063f3cb8c3114610213578063f851a4401461022f576100a9565b806318cb97b6146100ae5780632af4f731146100ca57806334ed5ef2146100e657806346bca477146101025780639dd0fa521461011e575b600080fd5b6100c860048036038101906100c3919061113b565b61024d565b005b6100e460048036038101906100df91906111c6565b6103a1565b005b61010060048036038101906100fb919061124a565b610595565b005b61011c6004803603810190610117919061124a565b6107b2565b005b6101386004803603810190610133919061129d565b6109fb565b60405161014591906112ec565b60405180910390f35b6101686004803603810190610163919061113b565b610c6d565b6040516101759190611437565b60405180910390f35b61019860048036038101906101939190611452565b610df8565b6040516101a5919061149a565b60405180910390f35b6101c860048036038101906101c3919061113b565b610e18565b6040516101da969594939291906114f1565b60405180910390f35b6101fd60048036038101906101f89190611452565b610ed3565b60405161020a919061149a565b60405180910390f35b61022d60048036038101906102289190611452565b610f29565b005b610237611054565b6040516102449190611552565b60405180910390f35b7f000000000000000000000000000000000000000000000000000000000000000073ffffffffffffffffffffffffffffffffffffffff163373ffffffffffffffffffffffffffffffffffffffff16141580156102f35750600160003373ffffffffffffffffffffffffffffffffffffffff1673ffffffffffffffffffffffffffffffffffffffff16815260200190815260200160002060009054906101000a900460ff16155b15610333576040517f08c379a000000000000000000000000000000000000000000000000000000000815260040161032a906115ca565b60405180910390fd5b600260008083815260200190815260200160002060010160166101000a81548160ff0219169083600281111561036c5761036b611345565b5b0217905550807f5d618a9915878058ef2c810a830a3b9391b8d8ef4e475445d6efe3e0f0f2af6660405160405180910390a250565b60008060008481526020019081526020016000209050600060028111156103cb576103ca611345565b5b8160010160169054906101000a900460ff1660028111156103ef576103ee611345565b5b1461042f576040517f08c379a000000000000000000000000000000000000000000000000000000000815260040161042690611636565b60405180910390fd5b8060000160009054906101000a900473ffffffffffffffffffffffffffffffffffffffff1673ffffffffffffffffffffffffffffffffffffffff168273ffffffffffffffffffffffffffffffffffffffff16146104c1576040517f08c379a00000000000000000000000000000000000000000000000000000000081526004016104b8906116c8565b60405180910390fd5b8060000160149054906101000a90046bffffffffffffffffffffffff168160010160008282829054906101000a90046bffffffffffffffffffffffff166105089190611717565b92506101000a8154816bffffffffffffffffffffffff02191690836bffffffffffffffffffffffff16021790555060018160010160166101000a81548160ff0219169083600281111561055e5761055d611345565b5b0217905550827f95a5e187f5b089b4d28ca86815871a8742a0effa8cb3ec38b6bb52ed524857c060405160405180910390a2505050565b60008060008581526020019081526020016000209050600160028111156105bf576105be611345565b5b8160010160169054906101000a900460ff1660028111156105e3576105e2611345565b5b14610623576040517f08c379a000000000000000000000000000000000000000000000000000000000815260040161061a906117a3565b60405180910390fd5b8060000160009054906101000a900473ffffffffffffffffffffffffffffffffffffffff1673ffffffffffffffffffffffffffffffffffffffff168273ffffffffffffffffffffffffffffffffffffffff16146106b5576040517f08c379a00000000000000000000000000000000000000000000000000000000081526004016106ac90611835565b60405180910390fd5b828160010160008282829054906101000a90046bffffffffffffffffffffffff166106e09190611717565b92506101000a8154816bffffffffffffffffffffffff02191690836bffffffffffffffffffffffff16021790555062278d004261071d919061185f565b8160010160116101000a81548164ffffffffff021916908364ffffffffff160217905550837f69ddecba7f1567fe8504db4b4e2ac42c55d56e37e3c660f7c8da98a3794f5f2f8260010160119054906101000a900464ffffffffff168360010160009054906101000a90046bffffffffffffffffffffffff166040516107a4929190611893565b60405180910390a250505050565b600080600085815260200190815260200160002090508060000160009054906101000a900473ffffffffffffffffffffffffffffffffffffffff1673ffffffffffffffffffffffffffffffffffffffff168273ffffffffffffffffffffffffffffffffffffffff161461085a576040517f08c379a00000000000000000000000000000000000000000000000000000000081526004016108519061192e565b60405180910390fd5b60028081111561086d5761086c611345565b5b8160010160169054906101000a900460ff16600281111561089157610890611345565b5b146108d1576040517f08c379a00000000000000000000000000000000000000000000000000000000081526004016108c89061199a565b60405180910390fd5b828160010160008282829054906101000a90046bffffffffffffffffffffffff166108fc9190611717565b92506101000a8154816bffffffffffffffffffffffff02191690836bffffffffffffffffffffffff16021790555062278d0042610939919061185f565b8160010160116101000a81548164ffffffffff021916908364ffffffffff16021790555060018160010160166101000a81548160ff0219169083600281111561098557610984611345565b5b0217905550837f99cc9a5e2d7201d4aa428b5a8d73f49cf75685c0eff3b70a9f1efcc0c2292e928260010160119054906101000a900464ffffffffff168360010160009054906101000a90046bffffffffffffffffffffffff166040516109ed929190611893565b60405180910390a250505050565b600080429050600062278d0082610a1291906119ba565b905060008583604051602001610a29929190611a71565b6040516020818303038152906040528051906020012090506040518060c001604052808773ffffffffffffffffffffffffffffffffffffffff168152602001866bffffffffffffffffffffffff16815260200160006bffffffffffffffffffffffff1681526020018464ffffffffff1681526020018364ffffffffff16815260200160006002811115610abf57610abe611345565b5b81525060008083815260200190815260200160002060008201518160000160006101000a81548173ffffffffffffffffffffffffffffffffffffffff021916908373ffffffffffffffffffffffffffffffffffffffff16021790555060208201518160000160146101000a8154816bffffffffffffffffffffffff02191690836bffffffffffffffffffffffff16021790555060408201518160010160006101000a8154816bffffffffffffffffffffffff02191690836bffffffffffffffffffffffff160217905550606082015181600101600c6101000a81548164ffffffffff021916908364ffffffffff16021790555060808201518160010160116101000a81548164ffffffffff021916908364ffffffffff16021790555060a08201518160010160166101000a81548160ff02191690836002811115610c0657610c05611345565b5b02179055509050508573ffffffffffffffffffffffffffffffffffffffff16817f6ffb5abaaafa0ba8da218235b69569e694b5986bdc6e1e080f15c5022c2c93dc878686604051610c5993929190611a9d565b60405180910390a380935050505092915050565b610c75611078565b6000808381526020019081526020016000206040518060c00160405290816000820160009054906101000a900473ffffffffffffffffffffffffffffffffffffffff1673ffffffffffffffffffffffffffffffffffffffff1673ffffffffffffffffffffffffffffffffffffffff1681526020016000820160149054906101000a90046bffffffffffffffffffffffff166bffffffffffffffffffffffff166bffffffffffffffffffffffff1681526020016001820160009054906101000a90046bffffffffffffffffffffffff166bffffffffffffffffffffffff166bffffffffffffffffffffffff16815260200160018201600c9054906101000a900464ffffffffff1664ffffffffff1664ffffffffff1681526020016001820160119054906101000a900464ffffffffff1664ffffffffff1664ffffffffff1681526020016001820160169054906101000a900460ff166002811115610ddb57610dda611345565b5b6002811115610ded57610dec611345565b5b815250509050919050565b60016020528060005260406000206000915054906101000a900460ff1681565b60006020528060005260406000206000915090508060000160009054906101000a900473ffffffffffffffffffffffffffffffffffffffff16908060000160149054906101000a90046bffffffffffffffffffffffff16908060010160009054906101000a90046bffffffffffffffffffffffff169080600101600c9054906101000a900464ffffffffff16908060010160119054906101000a900464ffffffffff16908060010160169054906101000a900460ff16905086565b6000600160008373ffffffffffffffffffffffffffffffffffffffff1673ffffffffffffffffffffffffffffffffffffffff16815260200190815260200160002060009054906101000a900460ff169050919050565b7f000000000000000000000000000000000000000000000000000000000000000073ffffffffffffffffffffffffffffffffffffffff163373ffffffffffffffffffffffffffffffffffffffff1614610fb7576040517f08c379a0000000000000000000000000000000000000000000000000000000008152600401610fae90611b20565b60405180910390fd5b60018060008373ffffffffffffffffffffffffffffffffffffffff1673ffffffffffffffffffffffffffffffffffffffff16815260200190815260200160002060006101000a81548160ff0219169083151502179055508073ffffffffffffffffffffffffffffffffffffffff167f041109cfe10cfa549abb66b986d0a294ecc6c9ad39000abcb9c2afd422c8bd6460405160405180910390a250565b7f000000000000000000000000000000000000000000000000000000000000000081565b6040518060c00160405280600073ffffffffffffffffffffffffffffffffffffffff16815260200160006bffffffffffffffffffffffff16815260200160006bffffffffffffffffffffffff168152602001600064ffffffffff168152602001600064ffffffffff168152602001600060028111156110fa576110f9611345565b5b81525090565b600080fd5b6000819050919050565b61111881611105565b811461112357600080fd5b50565b6000813590506111358161110f565b92915050565b60006020828403121561115157611150611100565b5b600061115f84828501611126565b91505092915050565b600073ffffffffffffffffffffffffffffffffffffffff82169050919050565b600061119382611168565b9050919050565b6111a381611188565b81146111ae57600080fd5b50565b6000813590506111c08161119a565b92915050565b600080604083850312156111dd576111dc611100565b5b60006111eb85828601611126565b92505060206111fc858286016111b1565b9150509250929050565b60006bffffffffffffffffffffffff82169050919050565b61122781611206565b811461123257600080fd5b50565b6000813590506112448161121e565b92915050565b60008060006060848603121561126357611262611100565b5b600061127186828701611126565b935050602061128286828701611235565b9250506040611293868287016111b1565b9150509250925092565b600080604083850312156112b4576112b3611100565b5b60006112c2858286016111b1565b92505060206112d385828601611235565b9150509250929050565b6112e681611105565b82525050565b600060208201905061130160008301846112dd565b92915050565b61131081611188565b82525050565b61131f81611206565b82525050565b600064ffffffffff82169050919050565b61133f81611325565b82525050565b7f4e487b7100000000000000000000000000000000000000000000000000000000600052602160045260246000fd5b6003811061138557611384611345565b5b50565b600081905061139682611374565b919050565b60006113a682611388565b9050919050565b6113b68161139b565b82525050565b60c0820160008201516113d26000850182611307565b5060208201516113e56020850182611316565b5060408201516113f86040850182611316565b50606082015161140b6060850182611336565b50608082015161141e6080850182611336565b5060a082015161143160a08501826113ad565b50505050565b600060c08201905061144c60008301846113bc565b92915050565b60006020828403121561146857611467611100565b5b6000611476848285016111b1565b91505092915050565b60008115159050919050565b6114948161147f565b82525050565b60006020820190506114af600083018461148b565b92915050565b6114be81611188565b82525050565b6114cd81611206565b82525050565b6114dc81611325565b82525050565b6114eb8161139b565b82525050565b600060c08201905061150660008301896114b5565b61151360208301886114c4565b61152060408301876114c4565b61152d60608301866114d3565b61153a60808301856114d3565b61154760a08301846114e2565b979650505050505050565b600060208201905061156760008301846114b5565b92915050565b600082825260208201905092915050565b7f4e6f7420617574686f7269736564000000000000000000000000000000000000600082015250565b60006115b4600e8361156d565b91506115bf8261157e565b602082019050919050565b600060208201905081810360008301526115e3816115a7565b9050919050565b7f506f6c696379206e6f7420696e2070656e64696e672073746174650000000000600082015250565b6000611620601b8361156d565b915061162b826115ea565b602082019050919050565b6000602082019050818103600083015261164f81611613565b9050919050565b7f4f6e6c792074686520706f6c69637920686f6c6465722063616e20616374697660008201527f6174652074686520706f6c696379000000000000000000000000000000000000602082015250565b60006116b2602e8361156d565b91506116bd82611656565b604082019050919050565b600060208201905081810360008301526116e1816116a5565b9050919050565b7f4e487b7100000000000000000000000000000000000000000000000000000000600052601160045260246000fd5b600061172282611206565b915061172d83611206565b925082820190506bffffffffffffffffffffffff811115611751576117506116e8565b5b92915050565b7f506f6c696379206973206e6f7420616374697665000000000000000000000000600082015250565b600061178d60148361156d565b915061179882611757565b602082019050919050565b600060208201905081810360008301526117bc81611780565b9050919050565b7f4f6e6c792074686520706f6c69637920686f6c6465722063616e20706179206660008201527f6f722074686520706f6c69637900000000000000000000000000000000000000602082015250565b600061181f602d8361156d565b915061182a826117c3565b604082019050919050565b6000602082019050818103600083015261184e81611812565b9050919050565b6000819050919050565b600061186a82611855565b915061187583611855565b925082820190508082111561188d5761188c6116e8565b5b92915050565b60006040820190506118a860008301856114d3565b6118b560208301846114c4565b9392505050565b7f4f6e6c792074686520706f6c69637920686f6c6465722063616e2072656e657760008201527f2074686520706f6c696379000000000000000000000000000000000000000000602082015250565b6000611918602b8361156d565b9150611923826118bc565b604082019050919050565b600060208201905081810360008301526119478161190b565b9050919050565b7f506f6c696379206e6f7420657870697265640000000000000000000000000000600082015250565b600061198460128361156d565b915061198f8261194e565b602082019050919050565b600060208201905081810360008301526119b381611977565b9050919050565b60006119c582611325565b91506119d083611325565b9250828201905064ffffffffff8111156119ed576119ec6116e8565b5b92915050565b60008160601b9050919050565b6000611a0b826119f3565b9050919050565b6000611a1d82611a00565b9050919050565b611a35611a3082611188565b611a12565b82525050565b60008160d81b9050919050565b6000611a5382611a3b565b9050919050565b611a6b611a6682611325565b611a48565b82525050565b6000611a7d8285611a24565b601482019150611a8d8284611a5a565b6005820191508190509392505050565b6000606082019050611ab260008301866114c4565b611abf60208301856114d3565b611acc60408301846114d3565b949350505050565b7f4e6f742061646d696e0000000000000000000000000000000000000000000000600082015250565b6000611b0a60098361156d565b9150611b1582611ad4565b602082019050919050565b60006020820190508181036000830152611b3981611afd565b905091905056fea264697066735822122029dbd93029c4261a584cabf3e9b42c9028363e6c5874d62d73389f4bd370679164736f6c634300081c0033",
          "opcodes": "PUSH1 0xA0 PUSH1 0x40 MSTORE CALLVALUE DUP1 ISZERO PUSH1 0xF JUMPI PUSH1 0x0 DUP1 REVERT JUMPDEST POP CALLER PUSH20 0xFFFFFFFFFFFFFFFFFFFFFFFFFFFFFFFFFFFFFFFF AND PUSH1 0x80 DUP2 PUSH20 0xFFFFFFFFFFFFFFFFFFFFFFFFFFFFFFFFFFFFFFFF AND DUP2 MSTORE POP POP PUSH1 0x80 MLOAD PUSH2 0x1B76 PUSH2 0x6D PUSH1 0x0 CODECOPY PUSH1 0x0 DUP2 DUP2 PUSH2 0x24F ADD MSTORE DUP2 DUP2 PUSH2 0xF2B ADD MSTORE PUSH2 0x1056 ADD MSTORE PUSH2 0x1B76 PUSH1 0x0 RETURN INVALID PUSH1 0x80 PUSH1 0x40 MSTORE CALLVALUE DUP1 ISZERO PUSH2 0x10 JUMPI PUSH1 0x0 DUP1 REVERT JUMPDEST POP PUSH1 0x4 CALLDATASIZE LT PUSH2 0xA9 JUMPI PUSH1 0x0 CALLDATALOAD PUSH1 0xE0 SHR DUP1 PUSH4 0xA3F685F9 GT PUSH2 0x71 JUMPI DUP1 PUSH4 0xA3F685F9 EQ PUSH2 0x14E JUMPI DUP1 PUSH4 0xD0678947 EQ PUSH2 0x17E JUMPI DUP1 PUSH4 0xDDBFD8EF EQ PUSH2 0x1AE JUMPI DUP1 PUSH4 0xEA66543F EQ PUSH2 0x1E3 JUMPI DUP1 PUSH4 0xF3CB8C31 EQ PUSH2 0x213 JUMPI DUP1 PUSH4 0xF851A440 EQ PUSH2 0x22F JUMPI PUSH2 0xA9 JUMP JUMPDEST DUP1 PUSH4 0x18CB97B6 EQ PUSH2 0xAE JUMPI DUP1 PUSH4 0x2AF4F731 EQ PUSH2 0xCA JUMPI DUP1 PUSH4 0x34ED5EF2 EQ PUSH2 0xE6 JUMPI DUP1 PUSH4 0x46BCA477 EQ PUSH2 0x102 JUMPI DUP1 PUSH4 0x9DD0FA52 EQ PUSH2 0x11E JUMPI JUMPDEST PUSH1 0x0 DUP1 REVERT JUMPDEST PUSH2 0xC8 PUSH1 0x4 DUP1 CALLDATASIZE SUB DUP2 ADD SWAP1 PUSH2 0xC3 SWAP2 SWAP1 PUSH2 0x113B JUMP JUMPDEST PUSH2 0x24D JUMP JUMPDEST STOP JUMPDEST PUSH2 0xE4 PUSH1 0x4 DUP1 CALLDATASIZE SUB DUP2 ADD SWAP1 PUSH2 0xDF SWAP2 SWAP1 PUSH2 0x11C6 JUMP JUMPDEST PUSH2 0x3A1 JUMP JUMPDEST STOP JUMPDEST PUSH2 0x100 PUSH1 0x4 DUP1 CALLDATASIZE SUB DUP2 ADD SWAP1 PUSH2 0xFB SWAP2 SWAP1 PUSH2 0x124A JUMP JUMPDEST PUSH2 0x595 JUMP JUMPDEST STOP JUMPDEST PUSH2 0x11C PUSH1 0x4 DUP1 CALLDATASIZE SUB DUP2 ADD SWAP1 PUSH2 0x117 SWAP2 SWAP1 PUSH2 0x124A JUMP JUMPDEST PUSH2 0x7B2 JUMP JUMPDEST STOP JUMPDEST PUSH2 0x138 PUSH1 0x4 DUP1 CALLDATASIZE SUB DUP2 ADD SWAP1 PUSH2 0x133 SWAP2 SWAP1 PUSH2 0x129D JUMP JUMPDEST PUSH2 0x9FB JUMP JUMPDEST PUSH1 0x40 MLOAD PUSH2 0x145 SWAP2 SWAP1 PUSH2 0x12EC JUMP JUMPDEST PUSH1 0x40 MLOAD DUP1 SWAP2 SUB SWAP1 RETURN JUMPDEST PUSH2 0x168 PUSH1 0x4 DUP1 CALLDATASIZE SUB DUP2 ADD SWAP1 PUSH2 0x163 SWAP2 SWAP1 PUSH2 0x113B JUMP JUMPDEST PUSH2 0xC6D JUMP JUMPDEST PUSH1 0x40 MLOAD PUSH2 0x175 SWAP2 SWAP1 PUSH2 0x1437 JUMP JUMPDEST PUSH1 0x40 MLOAD DUP1 SWAP2 SUB SWAP1 RETURN JUMPDEST PUSH2 0x198 PUSH1 0x4 DUP1 CALLDATASIZE SUB DUP2 ADD SWAP1 PUSH2 0x193 SWAP2 SWAP1 PUSH2 0x1452 JUMP JUMPDEST PUSH2 0xDF8 JUMP JUMPDEST PUSH1 0x40 MLOAD PUSH2 0x1A5 SWAP2 SWAP1 PUSH2 0x149A JUMP JUMPDEST PUSH1 0x40 MLOAD DUP1 SWAP2 SUB SWAP1 RETURN JUMPDEST PUSH2 0x1C8 PUSH1 0x4 DUP1 CALLDATASIZE SUB DUP2 ADD SWAP1 PUSH2 0x1C3 SWAP2 SWAP1 PUSH2 0x113B JUMP JUMPDEST PUSH2 0xE18 JUMP JUMPDEST PUSH1 0x40 MLOAD PUSH2 0x1DA SWAP7 SWAP6 SWAP5 SWAP4 SWAP3 SWAP2 SWAP1 PUSH2 0x14F1 JUMP JUMPDEST PUSH1 0x40 MLOAD DUP1 SWAP2 SUB SWAP1 RETURN JUMPDEST PUSH2 0x1FD PUSH1 0x4 DUP1 CALLDATASIZE SUB DUP2 ADD SWAP1 PUSH2 0x1F8 SWAP2 SWAP1 PUSH2 0x1452 JUMP JUMPDEST PUSH2 0xED3 JUMP JUMPDEST PUSH1 0x40 MLOAD PUSH2 0x20A SWAP2 SWAP1 PUSH2 0x149A JUMP JUMPDEST PUSH1 0x40 MLOAD DUP1 SWAP2 SUB SWAP1 RETURN JUMPDEST PUSH2 0x22D PUSH1 0x4 DUP1 CALLDATASIZE SUB DUP2 ADD SWAP1 PUSH2 0x228 SWAP2 SWAP1 PUSH2 0x1452 JUMP JUMPDEST PUSH2 0xF29 JUMP JUMPDEST STOP JUMPDEST PUSH2 0x237 PUSH2 0x1054 JUMP JUMPDEST PUSH1 0x40 MLOAD PUSH2 0x244 SWAP2 SWAP1 PUSH2 0x1552 JUMP JUMPDEST PUSH1 0x40 MLOAD DUP1 SWAP2 SUB SWAP1 RETURN JUMPDEST PUSH32 0x0 PUSH20 0xFFFFFFFFFFFFFFFFFFFFFFFFFFFFFFFFFFFFFFFF AND CALLER PUSH20 0xFFFFFFFFFFFFFFFFFFFFFFFFFFFFFFFFFFFFFFFF AND EQ ISZERO DUP1 ISZERO PUSH2 0x2F3 JUMPI POP PUSH1 0x1 PUSH1 0x0 CALLER PUSH20 0xFFFFFFFFFFFFFFFFFFFFFFFFFFFFFFFFFFFFFFFF AND PUSH20 0xFFFFFFFFFFFFFFFFFFFFFFFFFFFFFFFFFFFFFFFF AND DUP2 MSTORE PUSH1 0x20 ADD SWAP1 DUP2 MSTORE PUSH1 0x20 ADD PUSH1 0x0 KECCAK256 PUSH1 0x0 SWAP1 SLOAD SWAP1 PUSH2 0x100 EXP SWAP1 DIV PUSH1 0xFF AND ISZERO JUMPDEST ISZERO PUSH2 0x333 JUMPI PUSH1 0x40 MLOAD PUSH32 0x8C379A000000000000000000000000000000000000000000000000000000000 DUP2 MSTORE PUSH1 0x4 ADD PUSH2 0x32A SWAP1 PUSH2 0x15CA JUMP JUMPDEST PUSH1 0x40 MLOAD DUP1 SWAP2 SUB SWAP1 REVERT JUMPDEST PUSH1 0x2 PUSH1 0x0 DUP1 DUP4 DUP2 MSTORE PUSH1 0x20 ADD SWAP1 DUP2 MSTORE PUSH1 0x20 ADD PUSH1 0x0 KECCAK256 PUSH1 0x1 ADD PUSH1 0x16 PUSH2 0x100 EXP DUP2 SLOAD DUP2 PUSH1 0xFF MUL NOT AND SWAP1 DUP4 PUSH1 0x2 DUP2 GT ISZERO PUSH2 0x36C JUMPI PUSH2 0x36B PUSH2 0x1345 JUMP JUMPDEST JUMPDEST MUL OR SWAP1 SSTORE POP DUP1 PUSH32 0x5D618A9915878058EF2C810A830A3B9391B8D8EF4E475445D6EFE3E0F0F2AF66 PUSH1 0x40 MLOAD PUSH1 0x40 MLOAD DUP1 SWAP2 SUB SWAP1 LOG2 POP JUMP JUMPDEST PUSH1 0x0 DUP1 PUSH1 0x0 DUP5 DUP2 MSTORE PUSH1 0x20 ADD SWAP1 DUP2 MSTORE PUSH1 0x20 ADD PUSH1 0x0 KECCAK256 SWAP1 POP PUSH1 0x0 PUSH1 0x2 DUP2 GT ISZERO PUSH2 0x3CB JUMPI PUSH2 0x3CA PUSH2 0x1345 JUMP JUMPDEST JUMPDEST DUP2 PUSH1 0x1 ADD PUSH1 0x16 SWAP1 SLOAD SWAP1 PUSH2 0x100 EXP SWAP1 DIV PUSH1 0xFF AND PUSH1 0x2 DUP2 GT ISZERO PUSH2 0x3EF JUMPI PUSH2 0x3EE PUSH2 0x1345 JUMP JUMPDEST JUMPDEST EQ PUSH2 0x42F JUMPI PUSH1 0x40 MLOAD PUSH32 0x8C379A000000000000000000000000000000000000000000000000000000000 DUP2 MSTORE PUSH1 0x4 ADD PUSH2 0x426 SWAP1 PUSH2 0x1636 JUMP JUMPDEST PUSH1 0x40 MLOAD DUP1 SWAP2 SUB SWAP1 REVERT JUMPDEST DUP1 PUSH1 0x0 ADD PUSH1 0x0 SWAP1 SLOAD SWAP1 PUSH2 0x100 EXP SWAP1 DIV PUSH20 0xFFFFFFFFFFFFFFFFFFFFFFFFFFFFFFFFFFFFFFFF AND PUSH20 0xFFFFFFFFFFFFFFFFFFFFFFFFFFFFFFFFFFFFFFFF AND DUP3 PUSH20 0xFFFFFFFFFFFFFFFFFFFFFFFFFFFFFFFFFFFFFFFF AND EQ PUSH2 0x4C1 JUMPI PUSH1 0x40 MLOAD PUSH32 0x8C379A000000000000000000000000000000000000000000000000000000000 DUP2 MSTORE PUSH1 0x4 ADD PUSH2 0x4B8 SWAP1 PUSH2 0x16C8 JUMP JUMPDEST PUSH1 0x40 MLOAD DUP1 SWAP2 SUB SWAP1 REVERT JUMPDEST DUP1 PUSH1 0x0 ADD PUSH1 0x14 SWAP1 SLOAD SWAP1 PUSH2 0x100 EXP SWAP1 DIV PUSH12 0xFFFFFFFFFFFFFFFFFFFFFFFF AND DUP2 PUSH1 0x1 ADD PUSH1 0x0 DUP3 DUP3 DUP3 SWAP1 SLOAD SWAP1 PUSH2 0x100 EXP SWAP1 DIV PUSH12 0xFFFFFFFFFFFFFFFFFFFFFFFF AND PUSH2 0x508 SWAP2 SWAP1 PUSH2 0x1717 JUMP JUMPDEST SWAP3 POP PUSH2 0x100 EXP DUP2 SLOAD DUP2 PUSH12 0xFFFFFFFFFFFFFFFFFFFFFFFF MUL NOT AND SWAP1 DUP4 PUSH12 0xFFFFFFFFFFFFFFFFFFFFFFFF AND MUL OR SWAP1 SSTORE POP PUSH1 0x1 DUP2 PUSH1 0x1 ADD PUSH1 0x16 PUSH2 0x100 EXP DUP2 SLOAD DUP2 PUSH1 0xFF MUL NOT AND SWAP1 DUP4 PUSH1 0x2 DUP2 GT ISZERO PUSH2 0x55E JUMPI PUSH2 0x55D PUSH2 0x1345 JUMP JUMPDEST JUMPDEST MUL OR SWAP1 SSTORE POP DUP3 PUSH32 0x95A5E187F5B089B4D28CA86815871A8742A0EFFA8CB3EC38B6BB52ED524857C0 PUSH1 0x40 MLOAD PUSH1 0x40 MLOAD DUP1 SWAP2 SUB SWAP1 LOG2 POP POP POP JUMP JUMPDEST PUSH1 0x0 DUP1 PUSH1 0x0 DUP6 DUP2 MSTORE PUSH1 0x20 ADD SWAP1 DUP2 MSTORE PUSH1 0x20 ADD PUSH1 0x0 KECCAK256 SWAP1 POP PUSH1 0x1 PUSH1 0x2 DUP2 GT ISZERO PUSH2 0x5BF JUMPI PUSH2 0x5BE PUSH2 0x1345 JUMP JUMPDEST JUMPDEST DUP2 PUSH1 0x1 ADD PUSH1 0x16 SWAP1 SLOAD SWAP1 PUSH2 0x100 EXP SWAP1 DIV PUSH1 0xFF AND PUSH1 0x2 DUP2 GT ISZERO PUSH2 0x5E3 JUMPI PUSH2 0x5E2 PUSH2 0x1345 JUMP JUMPDEST JUMPDEST EQ PUSH2 0x623 JUMPI PUSH1 0x40 MLOAD PUSH32 0x8C379A000000000000000000000000000000000000000000000000000000000 DUP2 MSTORE PUSH1 0x4 ADD PUSH2 0x61A SWAP1 PUSH2 0x17A3 JUMP JUMPDEST PUSH1 0x40 MLOAD DUP1 SWAP2 SUB SWAP1 REVERT JUMPDEST DUP1 PUSH1 0x0 ADD PUSH1 0x0 SWAP1 SLOAD SWAP1 PUSH2 0x100 EXP SWAP1 DIV PUSH20 0xFFFFFFFFFFFFFFFFFFFFFFFFFFFFFFFFFFFFFFFF AND PUSH20 0xFFFFFFFFFFFFFFFFFFFFFFFFFFFFFFFFFFFFFFFF AND DUP3 PUSH20 0xFFFFFFFFFFFFFFFFFFFFFFFFFFFFFFFFFFFFFFFF AND EQ PUSH2 0x6B5 JUMPI PUSH1 0x40 MLOAD PUSH32 0x8C379A000000000000000000000000000000000000000000000000000000000 DUP2 MSTORE PUSH1 0x4 ADD PUSH2 0x6AC SWAP1 PUSH2 0x1835 JUMP JUMPDEST PUSH1 0x40 MLOAD DUP1 SWAP2 SUB SWAP1 REVERT JUMPDEST DUP3 DUP2 PUSH1 0x1 ADD PUSH1 0x0 DUP3 DUP3 DUP3 SWAP1 SLOAD SWAP1 PUSH2 0x100 EXP SWAP1 DIV PUSH12 0xFFFFFFFFFFFFFFFFFFFFFFFF AND PUSH2 0x6E0 SWAP2 SWAP1 PUSH2 0x1717 JUMP JUMPDEST SWAP3 POP PUSH2 0x100 EXP DUP2 SLOAD DUP2 PUSH12 0xFFFFFFFFFFFFFFFFFFFFFFFF MUL NOT AND SWAP1 DUP4 PUSH12 0xFFFFFFFFFFFFFFFFFFFFFFFF AND MUL OR SWAP1 SSTORE POP PUSH3 0x278D00 TIMESTAMP PUSH2 0x71D SWAP2 SWAP1 PUSH2 0x185F JUMP JUMPDEST DUP2 PUSH1 0x1 ADD PUSH1 0x11 PUSH2 0x100 EXP DUP2 SLOAD DUP2 PUSH5 0xFFFFFFFFFF MUL NOT AND SWAP1 DUP4 PUSH5 0xFFFFFFFFFF AND MUL OR SWAP1 SSTORE POP DUP4 PUSH32 0x69DDECBA7F1567FE8504DB4B4E2AC42C55D56E37E3C660F7C8DA98A3794F5F2F DUP3 PUSH1 0x1 ADD PUSH1 0x11 SWAP1 SLOAD SWAP1 PUSH2 0x100 EXP SWAP1 DIV PUSH5 0xFFFFFFFFFF AND DUP4 PUSH1 0x1 ADD PUSH1 0x0 SWAP1 SLOAD SWAP1 PUSH2 0x100 EXP SWAP1 DIV PUSH12 0xFFFFFFFFFFFFFFFFFFFFFFFF AND PUSH1 0x40 MLOAD PUSH2 0x7A4 SWAP3 SWAP2 SWAP1 PUSH2 0x1893 JUMP JUMPDEST PUSH1 0x40 MLOAD DUP1 SWAP2 SUB SWAP1 LOG2 POP POP POP POP JUMP JUMPDEST PUSH1 0x0 DUP1 PUSH1 0x0 DUP6 DUP2 MSTORE PUSH1 0x20 ADD SWAP1 DUP2 MSTORE PUSH1 0x20 ADD PUSH1 0x0 KECCAK256 SWAP1 POP DUP1 PUSH1 0x0 ADD PUSH1 0x0 SWAP1 SLOAD SWAP1 PUSH2 0x100 EXP SWAP1 DIV PUSH20 0xFFFFFFFFFFFFFFFFFFFFFFFFFFFFFFFFFFFFFFFF AND PUSH20 0xFFFFFFFFFFFFFFFFFFFFFFFFFFFFFFFFFFFFFFFF AND DUP3 PUSH20 0xFFFFFFFFFFFFFFFFFFFFFFFFFFFFFFFFFFFFFFFF AND EQ PUSH2 0x85A JUMPI PUSH1 0x40 MLOAD PUSH32 0x8C379A000000000000000000000000000000000000000000000000000000000 DUP2 MSTORE PUSH1 0x4 ADD PUSH2 0x851 SWAP1 PUSH2 0x192E JUMP JUMPDEST PUSH1 0x40 MLOAD DUP1 SWAP2 SUB SWAP1 REVERT JUMPDEST PUSH1 0x2 DUP1 DUP2 GT ISZERO PUSH2 0x86D JUMPI PUSH2 0x86C PUSH2 0x1345 JUMP JUMPDEST JUMPDEST DUP2 PUSH1 0x1 ADD PUSH1 0x16 SWAP1 SLOAD SWAP1 PUSH2 0x100 EXP SWAP1 DIV PUSH1 0xFF AND PUSH1 0x2 DUP2 GT ISZERO PUSH2 0x891 JUMPI PUSH2 0x890 PUSH2 0x1345 JUMP JUMPDEST JUMPDEST EQ PUSH2 0x8D1 JUMPI PUSH1 0x40 MLOAD PUSH32 0x8C379A000000000000000000000000000000000000000000000000000000000 DUP2 MSTORE PUSH1 0x4 ADD PUSH2 0x8C8 SWAP1 PUSH2 0x199A JUMP JUMPDEST PUSH1 0x40 MLOAD DUP1 SWAP2 SUB SWAP1 REVERT JUMPDEST DUP3 DUP2 PUSH1 0x1 ADD PUSH1 0x0 DUP3 DUP3 DUP3 SWAP1 SLOAD SWAP1 PUSH2 0x100 EXP SWAP1 DIV PUSH12 0xFFFFFFFFFFFFFFFFFFFFFFFF AND PUSH2 0x8FC SWAP2 SWAP1 PUSH2 0x1717 JUMP JUMPDEST SWAP3 POP PUSH2 0x100 EXP DUP2 SLOAD DUP2 PUSH12 0xFFFFFFFFFFFFFFFFFFFFFFFF MUL NOT AND SWAP1 DUP4 PUSH12 0xFFFFFFFFFFFFFFFFFFFFFFFF AND MUL OR SWAP1 SSTORE POP PUSH3 0x278D00 TIMESTAMP PUSH2 0x939 SWAP2 SWAP1 PUSH2 0x185F JUMP JUMPDEST DUP2 PUSH1 0x1 ADD PUSH1 0x11 PUSH2 0x100 EXP DUP2 SLOAD DUP2 PUSH5 0xFFFFFFFFFF MUL NOT AND SWAP1 DUP4 PUSH5 0xFFFFFFFFFF AND MUL OR SWAP1 SSTORE POP PUSH1 0x1 DUP2 PUSH1 0x1 ADD PUSH1 0x16 PUSH2 0x100 EXP DUP2 SLOAD DUP2 PUSH1 0xFF MUL NOT AND SWAP1 DUP4 PUSH1 0x2 DUP2 GT ISZERO PUSH2 0x985 JUMPI PUSH2 0x984 PUSH2 0x1345 JUMP JUMPDEST JUMPDEST MUL OR SWAP1 SSTORE POP DUP4 PUSH32 0x99CC9A5E2D7201D4AA428B5A8D73F49CF75685C0EFF3B70A9F1EFCC0C2292E92 DUP3 PUSH1 0x1 ADD PUSH1 0x11 SWAP1 SLOAD SWAP1 PUSH2 0x100 EXP SWAP1 DIV PUSH5 0xFFFFFFFFFF AND DUP4 PUSH1 0x1 ADD PUSH1 0x0 SWAP1 SLOAD SWAP1 PUSH2 0x100 EXP SWAP1 DIV PUSH12 0xFFFFFFFFFFFFFFFFFFFFFFFF AND PUSH1 0x40 MLOAD PUSH2 0x9ED SWAP3 SWAP2 SWAP1 PUSH2 0x1893 JUMP JUMPDEST PUSH1 0x40 MLOAD DUP1 SWAP2 SUB SWAP1 LOG2 POP POP POP POP JUMP JUMPDEST PUSH1 0x0 DUP1 TIMESTAMP SWAP1 POP PUSH1 0x0 PUSH3 0x278D00 DUP3 PUSH2 0xA12 SWAP2 SWAP1 PUSH2 0x19BA JUMP JUMPDEST SWAP1 POP PUSH1 0x0 DUP6 DUP4 PUSH1 0x40 MLOAD PUSH1 0x20 ADD PUSH2 0xA29 SWAP3 SWAP2 SWAP1 PUSH2 0x1A71 JUMP JUMPDEST PUSH1 0x40 MLOAD PUSH1 0x20 DUP2 DUP4 SUB SUB DUP2 MSTORE SWAP1 PUSH1 0x40 MSTORE DUP1 MLOAD SWAP1 PUSH1 0x20 ADD KECCAK256 SWAP1 POP PUSH1 0x40 MLOAD DUP1 PUSH1 0xC0 ADD PUSH1 0x40 MSTORE DUP1 DUP8 PUSH20 0xFFFFFFFFFFFFFFFFFFFFFFFFFFFFFFFFFFFFFFFF AND DUP2 MSTORE PUSH1 0x20 ADD DUP7 PUSH12 0xFFFFFFFFFFFFFFFFFFFFFFFF AND DUP2 MSTORE PUSH1 0x20 ADD PUSH1 0x0 PUSH12 0xFFFFFFFFFFFFFFFFFFFFFFFF AND DUP2 MSTORE PUSH1 0x20 ADD DUP5 PUSH5 0xFFFFFFFFFF AND DUP2 MSTORE PUSH1 0x20 ADD DUP4 PUSH5 0xFFFFFFFFFF AND DUP2 MSTORE PUSH1 0x20 ADD PUSH1 0x0 PUSH1 0x2 DUP2 GT ISZERO PUSH2 0xABF JUMPI PUSH2 0xABE PUSH2 0x1345 JUMP JUMPDEST JUMPDEST DUP2 MSTORE POP PUSH1 0x0 DUP1 DUP4 DUP2 MSTORE PUSH1 0x20 ADD SWAP1 DUP2 MSTORE PUSH1 0x20 ADD PUSH1 0x0 KECCAK256 PUSH1 0x0 DUP3 ADD MLOAD DUP2 PUSH1 0x0 ADD PUSH1 0x0 PUSH2 0x100 EXP DUP2 SLOAD DUP2 PUSH20 0xFFFFFFFFFFFFFFFFFFFFFFFFFFFFFFFFFFFFFFFF MUL NOT AND SWAP1 DUP4 PUSH20 0xFFFFFFFFFFFFFFFFFFFFFFFFFFFFFFFFFFFFFFFF AND MUL OR SWAP1 SSTORE POP PUSH1 0x20 DUP3 ADD MLOAD DUP2 PUSH1 0x0 ADD PUSH1 0x14 PUSH2 0x100 EXP DUP2 SLOAD DUP2 PUSH12 0xFFFFFFFFFFFFFFFFFFFFFFFF MUL NOT AND SWAP1 DUP4 PUSH12 0xFFFFFFFFFFFFFFFFFFFFFFFF AND MUL OR SWAP1 SSTORE POP PUSH1 0x40 DUP3 ADD MLOAD DUP2 PUSH1 0x1 ADD PUSH1 0x0 PUSH2 0x100 EXP DUP2 SLOAD DUP2 PUSH12 0xFFFFFFFFFFFFFFFFFFFFFFFF MUL NOT AND SWAP1 DUP4 PUSH12 0xFFFFFFFFFFFFFFFFFFFFFFFF AND MUL OR SWAP1 SSTORE POP PUSH1 0x60 DUP3 ADD MLOAD DUP2 PUSH1 0x1 ADD PUSH1 0xC PUSH2 0x100 EXP DUP2 SLOAD DUP2 PUSH5 0xFFFFFFFFFF MUL NOT AND SWAP1 DUP4 PUSH5 0xFFFFFFFFFF AND MUL OR SWAP1 SSTORE POP PUSH1 0x80 DUP3 ADD MLOAD DUP2 PUSH1 0x1 ADD PUSH1 0x11 PUSH2 0x100 EXP DUP2 SLOAD DUP2 PUSH5 0xFFFFFFFFFF MUL NOT AND SWAP1 DUP4 PUSH5 0xFFFFFFFFFF AND MUL OR SWAP1 SSTORE POP PUSH1 0xA0 DUP3 ADD MLOAD DUP2 PUSH1 0x1 ADD PUSH1 0x16 PUSH2 0x100 EXP DUP2 SLOAD DUP2 PUSH1 0xFF MUL NOT AND SWAP1 DUP4 PUSH1 0x2 DUP2 GT ISZERO PUSH2 0xC06 JUMPI PUSH2 0xC05 PUSH2 0x1345 JUMP JUMPDEST JUMPDEST MUL OR SWAP1 SSTORE POP SWAP1 POP POP DUP6 PUSH20 0xFFFFFFFFFFFFFFFFFFFFFFFFFFFFFFFFFFFFFFFF AND DUP2 PUSH32 0x6FFB5ABAAAFA0BA8DA218235B69569E694B5986BDC6E1E080F15C5022C2C93DC DUP8 DUP7 DUP7 PUSH1 0x40 MLOAD PUSH2 0xC59 SWAP4 SWAP3 SWAP2 SWAP1 PUSH2 0x1A9D JUMP JUMPDEST PUSH1 0x40 MLOAD DUP1 SWAP2 SUB SWAP1 LOG3 DUP1 SWAP4 POP POP POP POP SWAP3 SWAP2 POP POP JUMP JUMPDEST PUSH2 0xC75 PUSH2 0x1078 JUMP JUMPDEST PUSH1 0x0 DUP1 DUP4 DUP2 MSTORE PUSH1 0x20 ADD SWAP1 DUP2 MSTORE PUSH1 0x20 ADD PUSH1 0x0 KECCAK256 PUSH1 0x40 MLOAD DUP1 PUSH1 0xC0 ADD PUSH1 0x40 MSTORE SWAP1 DUP2 PUSH1 0x0 DUP3 ADD PUSH1 0x0 SWAP1 SLOAD SWAP1 PUSH2 0x100 EXP SWAP1 DIV PUSH20 0xFFFFFFFFFFFFFFFFFFFFFFFFFFFFFFFFFFFFFFFF AND PUSH20 0xFFFFFFFFFFFFFFFFFFFFFFFFFFFFFFFFFFFFFFFF AND PUSH20 0xFFFFFFFFFFFFFFFFFFFFFFFFFFFFFFFFFFFFFFFF AND DUP2 MSTORE PUSH1 0x20 ADD PUSH1 0x0 DUP3 ADD PUSH1 0x14 SWAP1 SLOAD SWAP1 PUSH2 0x100 EXP SWAP1 DIV PUSH12 0xFFFFFFFFFFFFFFFFFFFFFFFF AND PUSH12 0xFFFFFFFFFFFFFFFFFFFFFFFF AND PUSH12 0xFFFFFFFFFFFFFFFFFFFFFFFF AND DUP2 MSTORE PUSH1 0x20 ADD PUSH1 0x1 DUP3 ADD PUSH1 0x0 SWAP1 SLOAD SWAP1 PUSH2 0x100 EXP SWAP1 DIV PUSH12 0xFFFFFFFFFFFFFFFFFFFFFFFF AND PUSH12 0xFFFFFFFFFFFFFFFFFFFFFFFF AND PUSH12 0xFFFFFFFFFFFFFFFFFFFFFFFF AND DUP2 MSTORE PUSH1 0x20 ADD PUSH1 0x1 DUP3 ADD PUSH1 0xC SWAP1 SLOAD SWAP1 PUSH2 0x100 EXP SWAP1 DIV PUSH5 0xFFFFFFFFFF AND PUSH5 0xFFFFFFFFFF AND PUSH5 0xFFFFFFFFFF AND DUP2 MSTORE PUSH1 0x20 ADD PUSH1 0x1 DUP3 ADD PUSH1 0x11 SWAP1 SLOAD SWAP1 PUSH2 0x100 EXP SWAP1 DIV PUSH5 0xFFFFFFFFFF AND PUSH5 0xFFFFFFFFFF AND PUSH5 0xFFFFFFFFFF AND DUP2 MSTORE PUSH1 0x20 ADD PUSH1 0x1 DUP3 ADD PUSH1 0x16 SWAP1 SLOAD SWAP1 PUSH2 0x100 EXP SWAP1 DIV PUSH1 0xFF AND PUSH1 0x2 DUP2 GT ISZERO PUSH2 0xDDB JUMPI PUSH2 0xDDA PUSH2 0x1345 JUMP JUMPDEST JUMPDEST PUSH1 0x2 DUP2 GT ISZERO PUSH2 0xDED JUMPI PUSH2 0xDEC PUSH2 0x1345 JUMP JUMPDEST JUMPDEST DUP2 MSTORE POP POP SWAP1 POP SWAP2 SWAP1 POP JUMP JUMPDEST PUSH1 0x1 PUSH1 0x20 MSTORE DUP1 PUSH1 0x0 MSTORE PUSH1 0x40 PUSH1 0x0 KECCAK256 PUSH1 0x0 SWAP2 POP SLOAD SWAP1 PUSH2 0x100 EXP SWAP1 DIV PUSH1 0xFF AND DUP2 JUMP JUMPDEST PUSH1 0x0 PUSH1 0x20 MSTORE DUP1 PUSH1 0x0 MSTORE PUSH1 0x40 PUSH1 0x0 KECCAK256 PUSH1 0x0 SWAP2 POP SWAP1 POP DUP1 PUSH1 0x0 ADD PUSH1 0x0 SWAP1 SLOAD SWAP1 PUSH2 0x100 EXP SWAP1 DIV PUSH20 0xFFFFFFFFFFFFFFFFFFFFFFFFFFFFFFFFFFFFFFFF AND SWAP1 DUP1 PUSH1 0x0 ADD PUSH1 0x14 SWAP1 SLOAD SWAP1 PUSH2 0x100 EXP SWAP1 DIV PUSH12 0xFFFFFFFFFFFFFFFFFFFFFFFF AND SWAP1 DUP1 PUSH1 0x1 ADD PUSH1 0x0 SWAP1 SLOAD SWAP1 PUSH2 0x100 EXP SWAP1 DIV PUSH12 0xFFFFFFFFFFFFFFFFFFFFFFFF AND SWAP1 DUP1 PUSH1 0x1 ADD PUSH1 0xC SWAP1 SLOAD SWAP1 PUSH2 0x100 EXP SWAP1 DIV PUSH5 0xFFFFFFFFFF AND SWAP1 DUP1 PUSH1 0x1 ADD PUSH1 0x11 SWAP1 SLOAD SWAP1 PUSH2 0x100 EXP SWAP1 DIV PUSH5 0xFFFFFFFFFF AND SWAP1 DUP1 PUSH1 0x1 ADD PUSH1 0x16 SWAP1 SLOAD SWAP1 PUSH2 0x100 EXP SWAP1 DIV PUSH1 0xFF AND SWAP1 POP DUP7 JUMP JUMPDEST PUSH1 0x0 PUSH1 0x1 PUSH1 0x0 DUP4 PUSH20 0xFFFFFFFFFFFFFFFFFFFFFFFFFFFFFFFFFFFFFFFF AND PUSH20 0xFFFFFFFFFFFFFFFFFFFFFFFFFFFFFFFFFFFFFFFF AND DUP2 MSTORE PUSH1 0x20 ADD SWAP1 DUP2 MSTORE PUSH1 0x20 ADD PUSH1 0x0 KECCAK256 PUSH1 0x0 SWAP1 SLOAD SWAP1 PUSH2 0x100 EXP SWAP1 DIV PUSH1 0xFF AND SWAP1 POP SWAP2 SWAP1 POP JUMP JUMPDEST PUSH32 0x0 PUSH20 0xFFFFFFFFFFFFFFFFFFFFFFFFFFFFFFFFFFFFFFFF AND CALLER PUSH20 0xFFFFFFFFFFFFFFFFFFFFFFFFFFFFFFFFFFFFFFFF AND EQ PUSH2 0xFB7 JUMPI PUSH1 0x40 MLOAD PUSH32 0x8C379A000000000000000000000000000000000000000000000000000000000 DUP2 MSTORE PUSH1 0x4 ADD PUSH2 0xFAE SWAP1 PUSH2 0x1B20 JUMP JUMPDEST PUSH1 0x40 MLOAD DUP1 SWAP2 SUB SWAP1 REVERT JUMPDEST PUSH1 0x1 DUP1 PUSH1 0x0 DUP4 PUSH20 0xFFFFFFFFFFFFFFFFFFFFFFFFFFFFFFFFFFFFFFFF AND PUSH20 0xFFFFFFFFFFFFFFFFFFFFFFFFFFFFFFFFFFFFFFFF AND DUP2 MSTORE PUSH1 0x20 ADD SWAP1 DUP2 MSTORE PUSH1 0x20 ADD PUSH1 0x0 KECCAK256 PUSH1 0x0 PUSH2 0x100 EXP DUP2 SLOAD DUP2 PUSH1 0xFF MUL NOT AND SWAP1 DUP4 ISZERO ISZERO MUL OR SWAP1 SSTORE POP DUP1 PUSH20 0xFFFFFFFFFFFFFFFFFFFFFFFFFFFFFFFFFFFFFFFF AND PUSH32 0x41109CFE10CFA549ABB66B986D0A294ECC6C9AD39000ABCB9C2AFD422C8BD64 PUSH1 0x40 MLOAD PUSH1 0x40 MLOAD DUP1 SWAP2 SUB SWAP1 LOG2 POP JUMP JUMPDEST PUSH32 0x0 DUP2 JUMP JUMPDEST PUSH1 0x40 MLOAD DUP1 PUSH1 0xC0 ADD PUSH1 0x40 MSTORE DUP1 PUSH1 0x0 PUSH20 0xFFFFFFFFFFFFFFFFFFFFFFFFFFFFFFFFFFFFFFFF AND DUP2 MSTORE PUSH1 0x20 ADD PUSH1 0x0 PUSH12 0xFFFFFFFFFFFFFFFFFFFFFFFF AND DUP2 MSTORE PUSH1 0x20 ADD PUSH1 0x0 PUSH12 0xFFFFFFFFFFFFFFFFFFFFFFFF AND DUP2 MSTORE PUSH1 0x20 ADD PUSH1 0x0 PUSH5 0xFFFFFFFFFF AND DUP2 MSTORE PUSH1 0x20 ADD PUSH1 0x0 PUSH5 0xFFFFFFFFFF AND DUP2 MSTORE PUSH1 0x20 ADD PUSH1 0x0 PUSH1 0x2 DUP2 GT ISZERO PUSH2 0x10FA JUMPI PUSH2 0x10F9 PUSH2 0x1345 JUMP JUMPDEST JUMPDEST DUP2 MSTORE POP SWAP1 JUMP JUMPDEST PUSH1 0x0 DUP1 REVERT JUMPDEST PUSH1 0x0 DUP2 SWAP1 POP SWAP2 SWAP1 POP JUMP JUMPDEST PUSH2 0x1118 DUP2 PUSH2 0x1105 JUMP JUMPDEST DUP2 EQ PUSH2 0x1123 JUMPI PUSH1 0x0 DUP1 REVERT JUMPDEST POP JUMP JUMPDEST PUSH1 0x0 DUP2 CALLDATALOAD SWAP1 POP PUSH2 0x1135 DUP2 PUSH2 0x110F JUMP JUMPDEST SWAP3 SWAP2 POP POP JUMP JUMPDEST PUSH1 0x0 PUSH1 0x20 DUP3 DUP5 SUB SLT ISZERO PUSH2 0x1151 JUMPI PUSH2 0x1150 PUSH2 0x1100 JUMP JUMPDEST JUMPDEST PUSH1 0x0 PUSH2 0x115F DUP5 DUP3 DUP6 ADD PUSH2 0x1126 JUMP JUMPDEST SWAP2 POP POP SWAP3 SWAP2 POP POP JUMP JUMPDEST PUSH1 0x0 PUSH20 0xFFFFFFFFFFFFFFFFFFFFFFFFFFFFFFFFFFFFFFFF DUP3 AND SWAP1 POP SWAP2 SWAP1 POP JUMP JUMPDEST PUSH1 0x0 PUSH2 0x1193 DUP3 PUSH2 0x1168 JUMP JUMPDEST SWAP1 POP SWAP2 SWAP1 POP JUMP JUMPDEST PUSH2 0x11A3 DUP2 PUSH2 0x1188 JUMP JUMPDEST DUP2 EQ PUSH2 0x11AE JUMPI PUSH1 0x0 DUP1 REVERT JUMPDEST POP JUMP JUMPDEST PUSH1 0x0 DUP2 CALLDATALOAD SWAP1 POP PUSH2 0x11C0 DUP2 PUSH2 0x119A JUMP JUMPDEST SWAP3 SWAP2 POP POP JUMP JUMPDEST PUSH1 0x0 DUP1 PUSH1 0x40 DUP4 DUP6 SUB SLT ISZERO PUSH2 0x11DD JUMPI PUSH2 0x11DC PUSH2 0x1100 JUMP JUMPDEST JUMPDEST PUSH1 0x0 PUSH2 0x11EB DUP6 DUP3 DUP7 ADD PUSH2 0x1126 JUMP JUMPDEST SWAP3 POP POP PUSH1 0x20 PUSH2 0x11FC DUP6 DUP3 DUP7 ADD PUSH2 0x11B1 JUMP JUMPDEST SWAP2 POP POP SWAP3 POP SWAP3 SWAP1 POP JUMP JUMPDEST PUSH1 0x0 PUSH12 0xFFFFFFFFFFFFFFFFFFFFFFFF DUP3 AND SWAP1 POP SWAP2 SWAP1 POP JUMP JUMPDEST PUSH2 0x1227 DUP2 PUSH2 0x1206 JUMP JUMPDEST DUP2 EQ PUSH2 0x1232 JUMPI PUSH1 0x0 DUP1 REVERT JUMPDEST POP JUMP JUMPDEST PUSH1 0x0 DUP2 CALLDATALOAD SWAP1 POP PUSH2 0x1244 DUP2 PUSH2 0x121E JUMP JUMPDEST SWAP3 SWAP2 POP POP JUMP JUMPDEST PUSH1 0x0 DUP1 PUSH1 0x0 PUSH1 0x60 DUP5 DUP7 SUB SLT ISZERO PUSH2 0x1263 JUMPI PUSH2 0x1262 PUSH2 0x1100 JUMP JUMPDEST JUMPDEST PUSH1 0x0 PUSH2 0x1271 DUP7 DUP3 DUP8 ADD PUSH2 0x1126 JUMP JUMPDEST SWAP4 POP POP PUSH1 0x20 PUSH2 0x1282 DUP7 DUP3 DUP8 ADD PUSH2 0x1235 JUMP JUMPDEST SWAP3 POP POP PUSH1 0x40 PUSH2 0x1293 DUP7 DUP3 DUP8 ADD PUSH2 0x11B1 JUMP JUMPDEST SWAP2 POP POP SWAP3 POP SWAP3 POP SWAP3 JUMP JUMPDEST PUSH1 0x0 DUP1 PUSH1 0x40 DUP4 DUP6 SUB SLT ISZERO PUSH2 0x12B4 JUMPI PUSH2 0x12B3 PUSH2 0x1100 JUMP JUMPDEST JUMPDEST PUSH1 0x0 PUSH2 0x12C2 DUP6 DUP3 DUP7 ADD PUSH2 0x11B1 JUMP JUMPDEST SWAP3 POP POP PUSH1 0x20 PUSH2 0x12D3 DUP6 DUP3 DUP7 ADD PUSH2 0x1235 JUMP JUMPDEST SWAP2 POP POP SWAP3 POP SWAP3 SWAP1 POP JUMP JUMPDEST PUSH2 0x12E6 DUP2 PUSH2 0x1105 JUMP JUMPDEST DUP3 MSTORE POP POP JUMP JUMPDEST PUSH1 0x0 PUSH1 0x20 DUP3 ADD SWAP1 POP PUSH2 0x1301 PUSH1 0x0 DUP4 ADD DUP5 PUSH2 0x12DD JUMP JUMPDEST SWAP3 SWAP2 POP POP JUMP JUMPDEST PUSH2 0x1310 DUP2 PUSH2 0x1188 JUMP JUMPDEST DUP3 MSTORE POP POP JUMP JUMPDEST PUSH2 0x131F DUP2 PUSH2 0x1206 JUMP JUMPDEST DUP3 MSTORE POP POP JUMP JUMPDEST PUSH1 0x0 PUSH5 0xFFFFFFFFFF DUP3 AND SWAP1 POP SWAP2 SWAP1 POP JUMP JUMPDEST PUSH2 0x133F DUP2 PUSH2 0x1325 JUMP JUMPDEST DUP3 MSTORE POP POP JUMP JUMPDEST PUSH32 0x4E487B7100000000000000000000000000000000000000000000000000000000 PUSH1 0x0 MSTORE PUSH1 0x21 PUSH1 0x4 MSTORE PUSH1 0x24 PUSH1 0x0 REVERT JUMPDEST PUSH1 0x3 DUP2 LT PUSH2 0x1385 JUMPI PUSH2 0x1384 PUSH2 0x1345 JUMP JUMPDEST JUMPDEST POP JUMP JUMPDEST PUSH1 0x0 DUP2 SWAP1 POP PUSH2 0x1396 DUP3 PUSH2 0x1374 JUMP JUMPDEST SWAP2 SWAP1 POP JUMP JUMPDEST PUSH1 0x0 PUSH2 0x13A6 DUP3 PUSH2 0x1388 JUMP JUMPDEST SWAP1 POP SWAP2 SWAP1 POP JUMP JUMPDEST PUSH2 0x13B6 DUP2 PUSH2 0x139B JUMP JUMPDEST DUP3 MSTORE POP POP JUMP JUMPDEST PUSH1 0xC0 DUP3 ADD PUSH1 0x0 DUP3 ADD MLOAD PUSH2 0x13D2 PUSH1 0x0 DUP6 ADD DUP3 PUSH2 0x1307 JUMP JUMPDEST POP PUSH1 0x20 DUP3 ADD MLOAD PUSH2 0x13E5 PUSH1 0x20 DUP6 ADD DUP3 PUSH2 0x1316 JUMP JUMPDEST POP PUSH1 0x40 DUP3 ADD MLOAD PUSH2 0x13F8 PUSH1 0x40 DUP6 ADD DUP3 PUSH2 0x1316 JUMP JUMPDEST POP PUSH1 0x60 DUP3 ADD MLOAD PUSH2 0x140B PUSH1 0x60 DUP6 ADD DUP3 PUSH2 0x1336 JUMP JUMPDEST POP PUSH1 0x80 DUP3 ADD MLOAD PUSH2 0x141E PUSH1 0x80 DUP6 ADD DUP3 PUSH2 0x1336 JUMP JUMPDEST POP PUSH1 0xA0 DUP3 ADD MLOAD PUSH2 0x1431 PUSH1 0xA0 DUP6 ADD DUP3 PUSH2 0x13AD JUMP JUMPDEST POP POP POP POP JUMP JUMPDEST PUSH1 0x0 PUSH1 0xC0 DUP3 ADD SWAP1 POP PUSH2 0x144C PUSH1 0x0 DUP4 ADD DUP5 PUSH2 0x13BC JUMP JUMPDEST SWAP3 SWAP2 POP POP JUMP JUMPDEST PUSH1 0x0 PUSH1 0x20 DUP3 DUP5 SUB SLT ISZERO PUSH2 0x1468 JUMPI PUSH2 0x1467 PUSH2 0x1100 JUMP JUMPDEST JUMPDEST PUSH1 0x0 PUSH2 0x1476 DUP5 DUP3 DUP6 ADD PUSH2 0x11B1 JUMP JUMPDEST SWAP2 POP POP SWAP3 SWAP2 POP POP JUMP JUMPDEST PUSH1 0x0 DUP2 ISZERO ISZERO SWAP1 POP SWAP2 SWAP1 POP JUMP JUMPDEST PUSH2 0x1494 DUP2 PUSH2 0x147F JUMP JUMPDEST DUP3 MSTORE POP POP JUMP JUMPDEST PUSH1 0x0 PUSH1 0x20 DUP3 ADD SWAP1 POP PUSH2 0x14AF PUSH1 0x0 DUP4 ADD DUP5 PUSH2 0x148B JUMP JUMPDEST SWAP3 SWAP2 POP POP JUMP JUMPDEST PUSH2 0x14BE DUP2 PUSH2 0x1188 JUMP JUMPDEST DUP3 MSTORE POP POP JUMP JUMPDEST PUSH2 0x14CD DUP2 PUSH2 0x1206 JUMP JUMPDEST DUP3 MSTORE POP POP JUMP JUMPDEST PUSH2 0x14DC DUP2 PUSH2 0x1325 JUMP JUMPDEST DUP3 MSTORE POP POP JUMP JUMPDEST PUSH2 0x14EB DUP2 PUSH2 0x139B JUMP JUMPDEST DUP3 MSTORE POP POP JUMP JUMPDEST PUSH1 0x0 PUSH1 0xC0 DUP3 ADD SWAP1 POP PUSH2 0x1506 PUSH1 0x0 DUP4 ADD DUP10 PUSH2 0x14B5 JUMP JUMPDEST PUSH2 0x1513 PUSH1 0x20 DUP4 ADD DUP9 PUSH2 0x14C4 JUMP JUMPDEST PUSH2 0x1520 PUSH1 0x40 DUP4 ADD DUP8 PUSH2 0x14C4 JUMP JUMPDEST PUSH2 0x152D PUSH1 0x60 DUP4 ADD DUP7 PUSH2 0x14D3 JUMP JUMPDEST PUSH2 0x153A PUSH1 0x80 DUP4 ADD DUP6 PUSH2 0x14D3 JUMP JUMPDEST PUSH2 0x1547 PUSH1 0xA0 DUP4 ADD DUP5 PUSH2 0x14E2 JUMP JUMPDEST SWAP8 SWAP7 POP POP POP POP POP POP POP JUMP JUMPDEST PUSH1 0x0 PUSH1 0x20 DUP3 ADD SWAP1 POP PUSH2 0x1567 PUSH1 0x0 DUP4 ADD DUP5 PUSH2 0x14B5 JUMP JUMPDEST SWAP3 SWAP2 POP POP JUMP JUMPDEST PUSH1 0x0 DUP3 DUP3 MSTORE PUSH1 0x20 DUP3 ADD SWAP1 POP SWAP3 SWAP2 POP POP JUMP JUMPDEST PUSH32 0x4E6F7420617574686F7269736564000000000000000000000000000000000000 PUSH1 0x0 DUP3 ADD MSTORE POP JUMP JUMPDEST PUSH1 0x0 PUSH2 0x15B4 PUSH1 0xE DUP4 PUSH2 0x156D JUMP JUMPDEST SWAP2 POP PUSH2 0x15BF DUP3 PUSH2 0x157E JUMP JUMPDEST PUSH1 0x20 DUP3 ADD SWAP1 POP SWAP2 SWAP1 POP JUMP JUMPDEST PUSH1 0x0 PUSH1 0x20 DUP3 ADD SWAP1 POP DUP2 DUP2 SUB PUSH1 0x0 DUP4 ADD MSTORE PUSH2 0x15E3 DUP2 PUSH2 0x15A7 JUMP JUMPDEST SWAP1 POP SWAP2 SWAP1 POP JUMP JUMPDEST PUSH32 0x506F6C696379206E6F7420696E2070656E64696E672073746174650000000000 PUSH1 0x0 DUP3 ADD MSTORE POP JUMP JUMPDEST PUSH1 0x0 PUSH2 0x1620 PUSH1 0x1B DUP4 PUSH2 0x156D JUMP JUMPDEST SWAP2 POP PUSH2 0x162B DUP3 PUSH2 0x15EA JUMP JUMPDEST PUSH1 0x20 DUP3 ADD SWAP1 POP SWAP2 SWAP1 POP JUMP JUMPDEST PUSH1 0x0 PUSH1 0x20 DUP3 ADD SWAP1 POP DUP2 DUP2 SUB PUSH1 0x0 DUP4 ADD MSTORE PUSH2 0x164F DUP2 PUSH2 0x1613 JUMP JUMPDEST SWAP1 POP SWAP2 SWAP1 POP JUMP JUMPDEST PUSH32 0x4F6E6C792074686520706F6C69637920686F6C6465722063616E206163746976 PUSH1 0x0 DUP3 ADD MSTORE PUSH32 0x6174652074686520706F6C696379000000000000000000000000000000000000 PUSH1 0x20 DUP3 ADD MSTORE POP JUMP JUMPDEST PUSH1 0x0 PUSH2 0x16B2 PUSH1 0x2E DUP4 PUSH2 0x156D JUMP JUMPDEST SWAP2 POP PUSH2 0x16BD DUP3 PUSH2 0x1656 JUMP JUMPDEST PUSH1 0x40 DUP3 ADD SWAP1 POP SWAP2 SWAP1 POP JUMP JUMPDEST PUSH1 0x0 PUSH1 0x20 DUP3 ADD SWAP1 POP DUP2 DUP2 SUB PUSH1 0x0 DUP4 ADD MSTORE PUSH2 0x16E1 DUP2 PUSH2 0x16A5 JUMP JUMPDEST SWAP1 POP SWAP2 SWAP1 POP JUMP JUMPDEST PUSH32 0x4E487B7100000000000000000000000000000000000000000000000000000000 PUSH1 0x0 MSTORE PUSH1 0x11 PUSH1 0x4 MSTORE PUSH1 0x24 PUSH1 0x0 REVERT JUMPDEST PUSH1 0x0 PUSH2 0x1722 DUP3 PUSH2 0x1206 JUMP JUMPDEST SWAP2 POP PUSH2 0x172D DUP4 PUSH2 0x1206 JUMP JUMPDEST SWAP3 POP DUP3 DUP3 ADD SWAP1 POP PUSH12 0xFFFFFFFFFFFFFFFFFFFFFFFF DUP2 GT ISZERO PUSH2 0x1751 JUMPI PUSH2 0x1750 PUSH2 0x16E8 JUMP JUMPDEST JUMPDEST SWAP3 SWAP2 POP POP JUMP JUMPDEST PUSH32 0x506F6C696379206973206E6F7420616374697665000000000000000000000000 PUSH1 0x0 DUP3 ADD MSTORE POP JUMP JUMPDEST PUSH1 0x0 PUSH2 0x178D PUSH1 0x14 DUP4 PUSH2 0x156D JUMP JUMPDEST SWAP2 POP PUSH2 0x1798 DUP3 PUSH2 0x1757 JUMP JUMPDEST PUSH1 0x20 DUP3 ADD SWAP1 POP SWAP2 SWAP1 POP JUMP JUMPDEST PUSH1 0x0 PUSH1 0x20 DUP3 ADD SWAP1 POP DUP2 DUP2 SUB PUSH1 0x0 DUP4 ADD MSTORE PUSH2 0x17BC DUP2 PUSH2 0x1780 JUMP JUMPDEST SWAP1 POP SWAP2 SWAP1 POP JUMP JUMPDEST PUSH32 0x4F6E6C792074686520706F6C69637920686F6C6465722063616E207061792066 PUSH1 0x0 DUP3 ADD MSTORE PUSH32 0x6F722074686520706F6C69637900000000000000000000000000000000000000 PUSH1 0x20 DUP3 ADD MSTORE POP JUMP JUMPDEST PUSH1 0x0 PUSH2 0x181F PUSH1 0x2D DUP4 PUSH2 0x156D JUMP JUMPDEST SWAP2 POP PUSH2 0x182A DUP3 PUSH2 0x17C3 JUMP JUMPDEST PUSH1 0x40 DUP3 ADD SWAP1 POP SWAP2 SWAP1 POP JUMP JUMPDEST PUSH1 0x0 PUSH1 0x20 DUP3 ADD SWAP1 POP DUP2 DUP2 SUB PUSH1 0x0 DUP4 ADD MSTORE PUSH2 0x184E DUP2 PUSH2 0x1812 JUMP JUMPDEST SWAP1 POP SWAP2 SWAP1 POP JUMP JUMPDEST PUSH1 0x0 DUP2 SWAP1 POP SWAP2 SWAP1 POP JUMP JUMPDEST PUSH1 0x0 PUSH2 0x186A DUP3 PUSH2 0x1855 JUMP JUMPDEST SWAP2 POP PUSH2 0x1875 DUP4 PUSH2 0x1855 JUMP JUMPDEST SWAP3 POP DUP3 DUP3 ADD SWAP1 POP DUP1 DUP3 GT ISZERO PUSH2 0x188D JUMPI PUSH2 0x188C PUSH2 0x16E8 JUMP JUMPDEST JUMPDEST SWAP3 SWAP2 POP POP JUMP JUMPDEST PUSH1 0x0 PUSH1 0x40 DUP3 ADD SWAP1 POP PUSH2 0x18A8 PUSH1 0x0 DUP4 ADD DUP6 PUSH2 0x14D3 JUMP JUMPDEST PUSH2 0x18B5 PUSH1 0x20 DUP4 ADD DUP5 PUSH2 0x14C4 JUMP JUMPDEST SWAP4 SWAP3 POP POP POP JUMP JUMPDEST PUSH32 0x4F6E6C792074686520706F6C69637920686F6C6465722063616E2072656E6577 PUSH1 0x0 DUP3 ADD MSTORE PUSH32 0x2074686520706F6C696379000000000000000000000000000000000000000000 PUSH1 0x20 DUP3 ADD MSTORE POP JUMP JUMPDEST PUSH1 0x0 PUSH2 0x1918 PUSH1 0x2B DUP4 PUSH2 0x156D JUMP JUMPDEST SWAP2 POP PUSH2 0x1923 DUP3 PUSH2 0x18BC JUMP JUMPDEST PUSH1 0x40 DUP3 ADD SWAP1 POP SWAP2 SWAP1 POP JUMP JUMPDEST PUSH1 0x0 PUSH1 0x20 DUP3 ADD SWAP1 POP DUP2 DUP2 SUB PUSH1 0x0 DUP4 ADD MSTORE PUSH2 0x1947 DUP2 PUSH2 0x190B JUMP JUMPDEST SWAP1 POP SWAP2 SWAP1 POP JUMP JUMPDEST PUSH32 0x506F6C696379206E6F7420657870697265640000000000000000000000000000 PUSH1 0x0 DUP3 ADD MSTORE POP JUMP JUMPDEST PUSH1 0x0 PUSH2 0x1984 PUSH1 0x12 DUP4 PUSH2 0x156D JUMP JUMPDEST SWAP2 POP PUSH2 0x198F DUP3 PUSH2 0x194E JUMP JUMPDEST PUSH1 0x20 DUP3 ADD SWAP1 POP SWAP2 SWAP1 POP JUMP JUMPDEST PUSH1 0x0 PUSH1 0x20 DUP3 ADD SWAP1 POP DUP2 DUP2 SUB PUSH1 0x0 DUP4 ADD MSTORE PUSH2 0x19B3 DUP2 PUSH2 0x1977 JUMP JUMPDEST SWAP1 POP SWAP2 SWAP1 POP JUMP JUMPDEST PUSH1 0x0 PUSH2 0x19C5 DUP3 PUSH2 0x1325 JUMP JUMPDEST SWAP2 POP PUSH2 0x19D0 DUP4 PUSH2 0x1325 JUMP JUMPDEST SWAP3 POP DUP3 DUP3 ADD SWAP1 POP PUSH5 0xFFFFFFFFFF DUP2 GT ISZERO PUSH2 0x19ED JUMPI PUSH2 0x19EC PUSH2 0x16E8 JUMP JUMPDEST JUMPDEST SWAP3 SWAP2 POP POP JUMP JUMPDEST PUSH1 0x0 DUP2 PUSH1 0x60 SHL SWAP1 POP SWAP2 SWAP1 POP JUMP JUMPDEST PUSH1 0x0 PUSH2 0x1A0B DUP3 PUSH2 0x19F3 JUMP JUMPDEST SWAP1 POP SWAP2 SWAP1 POP JUMP JUMPDEST PUSH1 0x0 PUSH2 0x1A1D DUP3 PUSH2 0x1A00 JUMP JUMPDEST SWAP1 POP SWAP2 SWAP1 POP JUMP JUMPDEST PUSH2 0x1A35 PUSH2 0x1A30 DUP3 PUSH2 0x1188 JUMP JUMPDEST PUSH2 0x1A12 JUMP JUMPDEST DUP3 MSTORE POP POP JUMP JUMPDEST PUSH1 0x0 DUP2 PUSH1 0xD8 SHL SWAP1 POP SWAP2 SWAP1 POP JUMP JUMPDEST PUSH1 0x0 PUSH2 0x1A53 DUP3 PUSH2 0x1A3B JUMP JUMPDEST SWAP1 POP SWAP2 SWAP1 POP JUMP JUMPDEST PUSH2 0x1A6B PUSH2 0x1A66 DUP3 PUSH2 0x1325 JUMP JUMPDEST PUSH2 0x1A48 JUMP JUMPDEST DUP3 MSTORE POP POP JUMP JUMPDEST PUSH1 0x0 PUSH2 0x1A7D DUP3 DUP6 PUSH2 0x1A24 JUMP JUMPDEST PUSH1 0x14 DUP3 ADD SWAP2 POP PUSH2 0x1A8D DUP3 DUP5 PUSH2 0x1A5A JUMP JUMPDEST PUSH1 0x5 DUP3 ADD SWAP2 POP DUP2 SWAP1 POP SWAP4 SWAP3 POP POP POP JUMP JUMPDEST PUSH1 0x0 PUSH1 0x60 DUP3 ADD SWAP1 POP PUSH2 0x1AB2 PUSH1 0x0 DUP4 ADD DUP7 PUSH2 0x14C4 JUMP JUMPDEST PUSH2 0x1ABF PUSH1 0x20 DUP4 ADD DUP6 PUSH2 0x14D3 JUMP JUMPDEST PUSH2 0x1ACC PUSH1 0x40 DUP4 ADD DUP5 PUSH2 0x14D3 JUMP JUMPDEST SWAP5 SWAP4 POP POP POP POP JUMP JUMPDEST PUSH32 0x4E6F742061646D696E0000000000000000000000000000000000000000000000 PUSH1 0x0 DUP3 ADD MSTORE POP JUMP JUMPDEST PUSH1 0x0 PUSH2 0x1B0A PUSH1 0x9 DUP4 PUSH2 0x156D JUMP JUMPDEST SWAP2 POP PUSH2 0x1B15 DUP3 PUSH2 0x1AD4 JUMP JUMPDEST PUSH1 0x20 DUP3 ADD SWAP1 POP SWAP2 SWAP1 POP JUMP JUMPDEST PUSH1 0x0 PUSH1 0x20 DUP3 ADD SWAP1 POP DUP2 DUP2 SUB PUSH1 0x0 DUP4 ADD MSTORE PUSH2 0x1B39 DUP2 PUSH2 0x1AFD JUMP JUMPDEST SWAP1 POP SWAP2 SWAP1 POP JUMP INVALID LOG2 PUSH5 0x6970667358 0x22 SLT KECCAK256 0x29 0xDB 0xD9 ADDRESS 0x29 0xC4 0x26 BYTE PC 0x4C 0xAB RETURN 0xE9 0xB4 0x2C SWAP1 0x28 CALLDATASIZE RETURNDATACOPY PUSH13 0x5874D62D73389F4BD370679164 PUSH20 0x6F6C634300081C00330000000000000000000000 "
        },
        "methodIdentifiers": {
          "activatePolicy(bytes32,address)": "2af4f731",
          "addEmployee(address)": "f3cb8c31",
          "admin()": "f851a440",
          "createPolicy(address,uint96)": "9dd0fa52",
          "deactivatePolicy(bytes32)": "18cb97b6",
          "employees(address)": "d0678947",
          "getPolicy(bytes32)": "a3f685f9",
          "isEmployee(address)": "ea66543f",
          "payActivePolicy(bytes32,uint96,address)": "34ed5ef2",
          "policies(bytes32)": "ddbfd8ef",
          "renewPolicy(bytes32,uint96,address)": "46bca477"
        }
      }
    }
  }
}