{
  "_format": "hh-sol-artifact-1",
  "contractName": "Escrow",
  "sourceName": "contracts/Escrow.sol",
  "abi": [
    {
      "inputs": [
        {
          "internalType": "address",
          "name": "_insurancePolicyAddress",
          "type": "address"
        }
      ],
      "stateMutability": "nonpayable",
      "type": "constructor"
    },
    {
      "inputs": [],
      "name": "admin",
      "outputs": [
        {
          "internalType": "address",
          "name": "",
          "type": "address"
        }
      ],
      "stateMutability": "view",
      "type": "function"
    },
    {
      "inputs": [
        {
          "internalType": "bytes32",
          "name": "_policyId",
          "type": "bytes32"
        },
        {
          "internalType": "address",
          "name": "_caller",
          "type": "address"
        }
      ],
      "name": "depositFunds",
      "outputs": [],
      "stateMutability": "payable",
      "type": "function"
    },
    {
      "inputs": [
        {
          "internalType": "bytes32",
          "name": "_policyId",
          "type": "bytes32"
        },
        {
          "internalType": "address",
          "name": "_caller",
          "type": "address"
        }
      ],
      "name": "getBalance",
      "outputs": [
        {
          "internalType": "uint256",
          "name": "",
          "type": "uint256"
        }
      ],
      "stateMutability": "view",
      "type": "function"
    },
    {
      "inputs": [],
      "name": "insurancePolicy",
      "outputs": [
        {
          "internalType": "contract IInsurancePolicy",
          "name": "",
          "type": "address"
        }
      ],
      "stateMutability": "view",
      "type": "function"
    },
    {
      "inputs": [
        {
          "internalType": "bytes32",
          "name": "_policyId",
          "type": "bytes32"
        },
        {
          "internalType": "address payable",
          "name": "recipient",
          "type": "address"
        }
      ],
      "name": "releaseFunds",
      "outputs": [],
      "stateMutability": "nonpayable",
      "type": "function"
    },
    {
      "stateMutability": "payable",
      "type": "receive"
    }
  ],
  "bytecode": "0x60a060405234801561001057600080fd5b50604051610dc7380380610dc78339818101604052810190610032919061010f565b3373ffffffffffffffffffffffffffffffffffffffff1660808173ffffffffffffffffffffffffffffffffffffffff1681525050806000806101000a81548173ffffffffffffffffffffffffffffffffffffffff021916908373ffffffffffffffffffffffffffffffffffffffff1602179055505061013c565b600080fd5b600073ffffffffffffffffffffffffffffffffffffffff82169050919050565b60006100dc826100b1565b9050919050565b6100ec816100d1565b81146100f757600080fd5b50565b600081519050610109816100e3565b92915050565b600060208284031215610125576101246100ac565b5b6000610133848285016100fa565b91505092915050565b608051610c62610165600039600081816101d3015281816103fe01526106490152610c626000f3fe60806040526004361061004e5760003560e01c8063530e931c1461005a5780636994d20a146100975780637d25e89d146100b3578063f2943399146100dc578063f851a4401461010757610055565b3661005557005b600080fd5b34801561006657600080fd5b50610081600480360381019061007c919061070e565b610132565b60405161008e9190610767565b60405180910390f35b6100b160048036038101906100ac919061070e565b61035d565b005b3480156100bf57600080fd5b506100da60048036038101906100d591906107c0565b6105a8565b005b3480156100e857600080fd5b506100f1610623565b6040516100fe919061085f565b60405180910390f35b34801561011357600080fd5b5061011c610647565b6040516101299190610889565b60405180910390f35b60008060008054906101000a900473ffffffffffffffffffffffffffffffffffffffff1673ffffffffffffffffffffffffffffffffffffffff1663a3f685f9856040518263ffffffff1660e01b815260040161018e91906108b3565b60c060405180830381865afa1580156101ab573d6000803e3d6000fd5b505050506040513d601f19601f820116820180604052508101906101cf9190610aba565b90507f000000000000000000000000000000000000000000000000000000000000000073ffffffffffffffffffffffffffffffffffffffff168373ffffffffffffffffffffffffffffffffffffffff16141580156102c4575060008054906101000a900473ffffffffffffffffffffffffffffffffffffffff1673ffffffffffffffffffffffffffffffffffffffff1663ea66543f846040518263ffffffff1660e01b81526004016102819190610889565b602060405180830381865afa15801561029e573d6000803e3d6000fd5b505050506040513d601f19601f820116820180604052508101906102c29190610b1f565b155b80156103005750806000015173ffffffffffffffffffffffffffffffffffffffff168373ffffffffffffffffffffffffffffffffffffffff1614155b15610340576040517f08c379a000000000000000000000000000000000000000000000000000000000815260040161033790610ba9565b60405180910390fd5b600160008581526020019081526020016000205491505092915050565b60008060009054906101000a900473ffffffffffffffffffffffffffffffffffffffff1673ffffffffffffffffffffffffffffffffffffffff1663a3f685f9846040518263ffffffff1660e01b81526004016103b991906108b3565b60c060405180830381865afa1580156103d6573d6000803e3d6000fd5b505050506040513d601f19601f820116820180604052508101906103fa9190610aba565b90507f000000000000000000000000000000000000000000000000000000000000000073ffffffffffffffffffffffffffffffffffffffff168273ffffffffffffffffffffffffffffffffffffffff16141580156104ef575060008054906101000a900473ffffffffffffffffffffffffffffffffffffffff1673ffffffffffffffffffffffffffffffffffffffff1663ea66543f836040518263ffffffff1660e01b81526004016104ac9190610889565b602060405180830381865afa1580156104c9573d6000803e3d6000fd5b505050506040513d601f19601f820116820180604052508101906104ed9190610b1f565b155b801561052b5750806000015173ffffffffffffffffffffffffffffffffffffffff168273ffffffffffffffffffffffffffffffffffffffff1614155b1561056b576040517f08c379a000000000000000000000000000000000000000000000000000000000815260040161056290610ba9565b60405180910390fd5b346bffffffffffffffffffffffff1660016000858152602001908152602001600020600082825461059c9190610bf8565b92505081905550505050565b60006001600084815260200190815260200160002054905060016000848152602001908152602001600020600090558173ffffffffffffffffffffffffffffffffffffffff166108fc829081150290604051600060405180830381858888f1935050505015801561061d573d6000803e3d6000fd5b50505050565b60008054906101000a900473ffffffffffffffffffffffffffffffffffffffff1681565b7f000000000000000000000000000000000000000000000000000000000000000081565b6000604051905090565b600080fd5b6000819050919050565b61068d8161067a565b811461069857600080fd5b50565b6000813590506106aa81610684565b92915050565b600073ffffffffffffffffffffffffffffffffffffffff82169050919050565b60006106db826106b0565b9050919050565b6106eb816106d0565b81146106f657600080fd5b50565b600081359050610708816106e2565b92915050565b6000806040838503121561072557610724610675565b5b60006107338582860161069b565b9250506020610744858286016106f9565b9150509250929050565b6000819050919050565b6107618161074e565b82525050565b600060208201905061077c6000830184610758565b92915050565b600061078d826106b0565b9050919050565b61079d81610782565b81146107a857600080fd5b50565b6000813590506107ba81610794565b92915050565b600080604083850312156107d7576107d6610675565b5b60006107e58582860161069b565b92505060206107f6858286016107ab565b9150509250929050565b6000819050919050565b600061082561082061081b846106b0565b610800565b6106b0565b9050919050565b60006108378261080a565b9050919050565b60006108498261082c565b9050919050565b6108598161083e565b82525050565b60006020820190506108746000830184610850565b92915050565b610883816106d0565b82525050565b600060208201905061089e600083018461087a565b92915050565b6108ad8161067a565b82525050565b60006020820190506108c860008301846108a4565b92915050565b600080fd5b6000601f19601f8301169050919050565b7f4e487b7100000000000000000000000000000000000000000000000000000000600052604160045260246000fd5b61091c826108d3565b810181811067ffffffffffffffff8211171561093b5761093a6108e4565b5b80604052505050565b600061094e61066b565b905061095a8282610913565b919050565b60008151905061096e816106e2565b92915050565b60006bffffffffffffffffffffffff82169050919050565b61099581610974565b81146109a057600080fd5b50565b6000815190506109b28161098c565b92915050565b600064ffffffffff82169050919050565b6109d2816109b8565b81146109dd57600080fd5b50565b6000815190506109ef816109c9565b92915050565b60038110610a0257600080fd5b50565b600081519050610a14816109f5565b92915050565b600060c08284031215610a3057610a2f6108ce565b5b610a3a60c0610944565b90506000610a4a8482850161095f565b6000830152506020610a5e848285016109a3565b6020830152506040610a72848285016109a3565b6040830152506060610a86848285016109e0565b6060830152506080610a9a848285016109e0565b60808301525060a0610aae84828501610a05565b60a08301525092915050565b600060c08284031215610ad057610acf610675565b5b6000610ade84828501610a1a565b91505092915050565b60008115159050919050565b610afc81610ae7565b8114610b0757600080fd5b50565b600081519050610b1981610af3565b92915050565b600060208284031215610b3557610b34610675565b5b6000610b4384828501610b0a565b91505092915050565b600082825260208201905092915050565b7f4163636573732072657374726963746564000000000000000000000000000000600082015250565b6000610b93601183610b4c565b9150610b9e82610b5d565b602082019050919050565b60006020820190508181036000830152610bc281610b86565b9050919050565b7f4e487b7100000000000000000000000000000000000000000000000000000000600052601160045260246000fd5b6000610c038261074e565b9150610c0e8361074e565b9250828201905080821115610c2657610c25610bc9565b5b9291505056fea264697066735822122030dcdba00b66c86e2275d1f9574a7f1e60feeb1dc4944b631e62547780949cc164736f6c634300081c0033",
  "linkReferences": {},
  "deployedLinkReferences": {}
}